:020000040800F2
:10000000E8060020B52C000831030008330300087F
:10001000370300083B0300083F030008000000000E
:100020000000000000000000000000004303000882
:1000300045030008000000004703000849030008CA
:10004000CF2C0008CF2C0008CF2C0008CF2C0008A4
:10005000CF2C0008CF2C0008CF2C0008CF2C000894
:10006000CF2C0008CF2C0008CF2C0008CF2C000884
:10007000CF2C0008CF2C0008CF2C0008CF2C000874
:10008000CF2C0008CF2C0008CF2C0008CF2C000864
:10009000CF2C0008CF2C0008CF2C0008CF2C000854
:1000A000CF2C0008CF2C0008CF2C0008CF2C000844
:1000B000CF2C0008CF2C0008CF2C0008CF2C000834
:1000C000CF2C0008CF2C0008CF2C0008CF2C000824
:1000D000CF2C00089D2B0008CF2C0008CF2C000847
:1000E000CF2C0008CF2C0008CF2C0008CF2C000804
:1000F000CF2C0008CF2C0008CF2C0008CF2C0008F4
:10010000CF2C0008CF2C0008CF2C0008CF2C0008E3
:10011000CF2C0008CF2C0008CF2C0008CF2C0008D3
:10012000CF2C0008CF2C0008CF2C0008CF2C0008C3
:1001300000F002F800F03FF80AA090E8000C8244BA
:100140008344AAF10107DA4501D100F034F8AFF297
:10015000090EBAE80F0013F0010F18BFFB1A43F0A5
:1001600001031847A84E0000C84E0000103A24BFF3
:1001700078C878C1FAD8520724BF30C830C144BF0C
:1001800004680C607047000000230024002500264E
:10019000103A28BF78C1FBD8520728BF30C148BFEA
:1001A0000B607047782904F0FF80002070471FB56E
:1001B0001FBD10B510BD04F0B3F91146FFF7F7FFEE
:1001C00000F008F804F0D1F903B4FFF7F2FF03BC24
:1001D00002F082FC1CB502F011FC02F077FC4FF437
:1001E000E13002F08CFC00F095F900F0ABFC02F07D
:1001F00091FB4FF478403349088033A010210B461F
:10020000C822CDE9001032213C2002F046FB32A08A
:1002100010210B46C822CDE9001046213C2002F0F7
:100220003CFB30A010210B46C822CDE900105A211A
:100230003C2002F032FB2EA010210B46C822CDE953
:1002400000106E213C2002F028FB1F201D49088071
:100250002AA010210B46C822CDE9001082213C20A3
:1002600002F01BFB29A010210B46C822CDE900108B
:1002700096213C2002F011FB23E029480078012858
:100280001FD1002026490870264908702648847826
:10029000012C02D0022C12D108E0642002F0C7FB2E
:1002A0002148C178214803F073FF09E0642002F07F
:1002B000BEFB1D4801791D4803F06AFF00E000BF46
:1002C00000BFDAE7140000205665727941492053D7
:1002D000544D3332000000004144432054455354F0
:1002E0000000000056657279414940434F4D0000BF
:1002F000323031342F332F31350000004144435F19
:100300004348305F56414C3A000000004144435F8F
:100310004348305F564F4C3A302E30303056000054
:100320001F0000202000002046000020003801406F
:10033000704700BFFEE700BFFEE700BFFEE700BF5B
:10034000FEE77047704770477047000000210020AB
:10035000674A126842F48032654B1A6000BF644AF3
:10036000126802F40030491C10B9B1F5A06FF6D143
:100370005F4A126812F4003F01D0012000E0002023
:10038000012842D15B4A126842F01002594B1A60B0
:100390001A46126822F003021A601A46126842F0E6
:1003A00002021A60524A5268514B5A601A46526809
:1003B0005A601A46526842F480625A601A4652687D
:1003C00022F47C125A601A46526842F4E8125A60CB
:1003D0001A46126842F080721A6000BF444A1268DE
:1003E00012F0007FFAD0424A526822F00302404BDA
:1003F0005A601A46526842F002025A6000BF3C4AF4
:10040000526802F00C02082AF9D1704710B5FFF7C4
:100410009DFF10BD10B53648006840F0010034491A
:100420000860084640683449084031494860084639
:100430000068324908402E4908600846006820F4E8
:10044000802008600846406820F4FE0048604FF4B1
:100450001F008860FFF7DAFF4FF00060284908604E
:1004600010BD10B5002100200022214B5B6803F075
:100470000C0121B1042906D0082928D107E0214B1D
:10048000214C236027E01F4B1F4C236023E0184BB7
:100490005B6803F47010164B5B6803F48032022330
:1004A00003EB904022B9194B4343174C23600DE0F6
:1004B0000F4B5B6813F4003F04D0144B4343124CC2
:1004C000236003E00F4B43430F4C236003E00D4BCD
:1004D0000D4C236000BF00BF054B5B68C3F30313E3
:1004E0000B4CE15C084B1B68CB40074C236010BDF4
:1004F00000100240002002400000FFF8FFFFF6FE5F
:1005000008ED00E000127A000000002000093D0024
:100510000400002008B50121302003F095FC0820DC
:10052000ADF8000010208DF8030003208DF80200C4
:1005300069460D4803F0D6F908210B4803F07DFA0F
:100540004FF48050ADF8000010208DF80300032018
:100550008DF802006946054803F0C4F94FF4805154
:10056000024803F06AFA08BD00100140001401407F
:10057000F84908807047F749891C08807047F5489A
:10058000801C00887047F34A1080921C11807047CD
:1005900010B504462046FFF7EBFF052002F047FAAE
:1005A000FFF7EDFF10BDEC48C079EA4908807047BD
:1005B000E849891C0880704730B5014601F01F04E6
:1005C000C1F34513CA0AE50205EB43151544A8B269
:1005D00030BD00BF0100A0F10102D0B2FAD17047D6
:1005E00010B503460C46DC488088A0F5134141391C
:1005F00005D0D9488088A0F5D041043914D1D64916
:10060000087AFFF7B5FF1812FFF7B5FFD8B2FFF76A
:10061000B2FFD149487AFFF7ABFF2012FFF7ABFFDB
:10062000E0B2FFF7A8FF12E0CB488079012804D19F
:10063000C9480088401EC01A83B2C749087A1946C3
:10064000FFF7A1FFC449487A2146FFF79CFF10BD80
:100650002DE9F04105460E4600240027A046BE487D
:100660000088A84203DDBC484088B04202DC00207C
:10067000BDE8F08131462846FFF7B2FFB6488088D2
:10068000A0F51341413905D0B3488088A0F5D04189
:10069000043903D12E20FFF76BFF02E02220FFF781
:1006A00067FFAD488088A0F51341203902D10220B0
:1006B000FFF78FFFA748801C008800B100240220AC
:1006C000FFF787FFA348801C0488A3488088A0F513
:1006D000134141390CD10220FFF77BFF9D48801C5C
:1006E000B0F80080E7B24FF6FF7000EA072708E095
:1006F00099488088A0F5D041043902D19548801CE2
:10070000048895488088A0F51341253917D0924870
:100710008088A0F58A41353911D08F488088A0F5AE
:100720008A4131390BD08C488088A0F5094189393C
:1007300005D089488088A0F53541053901D120468A
:1007400096E785488088A0F51341413907D1E0122A
:10075000C002B91240EA411040EAE82088E720468A
:10076000FFF72AFF84E700B57B488088A0F5134196
:10077000413905D078488088A0F5D041043903D1AB
:100780002920FFF7F5FE04E040F273110720FFF780
:10079000FAFE00BD00B570488088A0F513414139CC
:1007A00005D06D488088A0F5D041043903D12820B8
:1007B000FFF7DEFE03E000210720FFF7E4FE00BDA7
:1007C000F0B50546002400276348807901281ED132
:1007D00061488088A0F5D041043918D0082D15D281
:1007E000DFE805F00406080A0C0E101206250DE0DD
:1007F00007250BE0042509E0052507E0012505E0B4
:10080000002503E0032501E0022500BF00BF524898
:100810008088A0F51341413905D04F488088A0F564
:10082000D04104397CD1082D1CD2DFE805F0040644
:10083000090C0F12151800BF14E044F0800411E0F9
:1008400044F040040EE044F0C0040BE044F0200407
:1008500008E044F0600405E044F0A00402E044F045
:10086000E00400BF00BF362744F008043A488088FF
:10087000A0F5D041043901D144F0020421463846A4
:10088000FFF781FE14F0200F0DD033480088324965
:100890004988884214DA3048068840882E49088002
:1008A000084646800CE02C4800882B49498888423D
:1008B00006DD294806884088274908800846468082
:1008C0002549087AFFF754FE0020FFF754FE002068
:1008D000FFF751FE20490988491EC1F30F20FFF799
:1008E0004AFE1D490978491EC8B2FFF744FE1A495D
:1008F000487AFFF73DFE0020FFF73DFE0020FFF79E
:100900003AFE15494988491EC1F30F20FFF733FE0F
:1009100011498978491EC8B2FFF72DFE37E0FFE77D
:10092000082D21D2DFE805F004070A0D0F121A1D69
:1009300044F0300418E044F0100415E044F02004C2
:1009400012E000BF10E044F038040DE044F0280449
:100950000AE00000FEFF01603C00002044F01804A3
:1009600002E044F0080400BF00BFFE488088A0F504
:100970000941893904D1112746F24000044302E0BD
:10098000032744F4805421463846FFF7FCFDF0BDB0
:1009900030B504460D4629462046FFF721FEFFF7F5
:1009A00002FEF1480088F149088030BD30B50346A9
:1009B0000C461546EB488088A0F51341413905D017
:1009C000E8488088A0F5D041043914D1E549087A77
:1009D000FFF7CEFD1812FFF7CEFDD8B2FFF7CBFD23
:1009E000E049487AFFF7C4FD2012FFF7C4FDE0B2EA
:1009F000FFF7C1FD12E0DB488079012804D1D94816
:100A00000088401EC01A83B2D649087A1946FFF7FB
:100A1000BAFDD449487A2146FFF7B5FDD148C079DF
:100A2000D249891E0880881C058030BD10B5044657
:100A3000002C3DD1CB498871F02008804FF4A07084
:100A4000488008468088A0F51341413905D0C54843
:100A50008088A0F5D041043914D12C20C149C87137
:100A60002A2008722B20487208468088A0F5D041C1
:100A700004394ED14FF4A070BA4908804FF4F07099
:100A8000488046E0B7488088A0F50941893907D1F8
:100A90002220B449C8714E2008724F20487238E0B5
:100AA0002220B049C871202008722120487230E00D
:100AB000AC488088A0F5D04104392AD00120A9494A
:100AC00088714FF4A0700880F02048800846808824
:100AD000A0F51341413907D12C20A249C8712A2021
:100AE00008722B20487214E09E488088A0F50941C6
:100AF000893907D122209B49C8714F2008724E20A6
:100B0000487206E022209749C871212008722020EF
:100B100048720020FFF754FE10BD70B50446002651
:100B2000904805884088454300210846FFF758FD56
:100B3000FFF739FD00BF02E08C480480761CAE420E
:100B4000FAD370BD00B59FB00121080203F06FF920
:100B50000121612003F078F903208DF87A00182034
:100B60008DF87B004CF20370ADF878001EA9804828
:100B700002F0B8FE4FF68070ADF878001EA97D48EF
:100B800002F0B0FE4FF40B60ADF878001EA9784873
:100B900002F0A8FE4FF40050ADF8780010208DF858
:100BA0007B0003208DF87A001EA9714802F09AFE9E
:100BB0004FF400516E4802F042FF012008900020DF
:100BC00009900F200A9000200B900C900D900E9031
:100BD000019002900320039000200490059006905D
:100BE00007900F90109011901020129000201390F9
:100BF00015901490169017904FF480501890002084
:100C000019904FF480401A9000201B9008A81C9067
:100C100001A81D900FA802F048FB0121002002F05E
:100C2000A5FC322001F026FF01210020FFF7ABFCDC
:100C3000322001F01FFF0020FFF7AAFC49498880FD
:100C400008468088FF280ADB08468088A0F57F4197
:100C5000FF3904D043488088B0F5134F4BD1D320DF
:100C6000FFF786FCFFF78BFCFFF789FCFFF787FC9B
:100C70003C498880084680884FF6FF7101EA0020D1
:100C800038498880FFF77BFC364989880843354915
:100C9000888008468088A0F5134141391BD0BF20C9
:100CA000FFF766FCFFF76BFCFFF769FCFFF767FCDB
:100CB000FFF765FC2B498880084680884FF6FF7156
:100CC00001EA002027498880FFF759FC25498988D7
:100CD00008432449888023488088A0F5134141397E
:100CE00009D020488088A0F5D041043903D049F2CA
:100CF00025301C4988801B4881881FA003F012FB07
:100D000018488088A0F5134141397DD1CF20FFF7E5
:100D10002FFC0020FFF72FFCC120FFF72CFC302018
:100D2000FFF729FCED20FFF723FC6420FFF723FCED
:100D30000320FFF720FC1220FFF71DFC8120FFF7A6
:100D40001AFCE820FFF714FC8520FFF714FC1020A4
:100D5000FFF711FC7A20FFF70EFCCB20FFF708FC11
:100D6000392011E03C000020140000200000026047
:100D70000014014000180140204C43442049442005
:100D800069733A25780D0A00FFF7F5FB2C20FFF771
:100D9000F2FB0020FFF7EFFB3420FFF7ECFB022013
:100DA000FFF7E9FBF720FFF7E3FB2020FFF7E3FB6A
:100DB000EA20FFF7DDFB0020FFF7DDFB0020FFF757
:100DC000DAFBC020FFF7D4FB1B20FFF7D4FBC120C8
:100DD000FFF7CEFB0120FFF7CEFBC520FFF7C8FBD6
:100DE0003020FFF7C8FB3020FFF7C5FBC720FFF717
:100DF000BFFBB720FFF7BFFB3620FFF7B9FB48204A
:100E0000FFF7B9FB3A2000E0ABE0FFF7B1FB55205C
:100E1000FFF7B1FBB120FFF7ABFB0020FFF7ABFB07
:100E20001A20FFF7A8FBB620FFF7A2FB0A20FFF766
:100E3000A2FBA220FFF79FFBF220FFF799FB002007
:100E4000FFF799FB2620FFF793FB0120FFF793FBA9
:100E5000E020FFF78DFB0F20FFF78DFB2A20FFF727
:100E60008AFB2820FFF787FB0820FFF784FB0E2072
:100E7000FFF781FB0820FFF77EFB5420FFF77BFB89
:100E8000A920FFF778FB4320FFF775FB0A20FFF747
:100E900072FB0F20FFF76FFB0020FFF76CFB0020B9
:100EA000FFF769FB0020FFF766FB0020FFF763FBFD
:100EB000E120FFF75DFB0020FFF75DFB1520FFF74A
:100EC0005AFB1720FFF757FB0720FFF754FB1120B1
:100ED000FFF751FB0620FFF74EFB2B20FFF74BFBE4
:100EE0005620FFF748FB3C20FFF745FB0520FFF7A6
:100EF00042FB1020FFF73FFB0F20FFF73CFB3F209A
:100F0000FFF739FB3F20FFF736FB0F20FFF733FBDE
:100F10002B20FFF72DFB0020FFF72DFB0020FFF714
:100F20002AFB0120FFF727FB3F20FFF724FB2A20A5
:100F3000FFF71EFB0020FFF71EFB0020FFF71BFB47
:100F40000020FFF718FBEF20FFF715FB1120FFF73C
:100F50000FFB782001F08EFD2920FFF709FB01F03F
:100F60000FBAFE488088A0F5D04104397ED1112007
:100F7000FFF7FEFA142001F07DFDD020FFF7F8FA0C
:100F80000720FFF7F8FA4220FFF7F5FA1D20FFF7D8
:100F9000F2FAD120FFF7ECFA0020FFF7ECFA1A2062
:100FA000FFF7E9FA0920FFF7E6FAD220FFF7E0FAA7
:100FB0000120FFF7E0FA2220FFF7DDFAC020FFF75B
:100FC000D7FA1020FFF7D7FA3B20FFF7D4FA00201A
:100FD000FFF7D1FA0220FFF7CEFA1120FFF7CBFA84
:100FE000C520FFF7C5FA0320FFF7C5FAC820FFF7B1
:100FF000BFFA0020FFF7BFFA2520FFF7BCFA212037
:10100000FFF7B9FA0520FFF7B6FA0020FFF7B3FAA9
:101010000A20FFF7B0FA6520FFF7ADFA2520FFF7A9
:10102000AAFA7720FFF7A7FA5020FFF7A4FA0F20BB
:10103000FFF7A1FA0020FFF79EFAF820FFF798FAD1
:101040000120FFF798FAFE20FFF792FA0020FFF741
:1010500092FA0220FFF78FFA2020FFF789FA362054
:10106000FFF786FA0820FFF786FA00E02AE03A2028
:10107000FFF77EFA5520FFF77EFA2B20FFF778FA6C
:101080000020FFF778FA0020FFF775FA0120FFF73C
:1010900072FA3F20FFF76FFA2A20FFF769FA002063
:1010A000FFF769FA0020FFF766FA0120FFF763FAFD
:1010B000DF20FFF760FA782001F0DCFC2920FFF741
:1010C00057FA4CE7A5488088A0F5134125397DD112
:1010D00047F6F001E520FFF756FA4FF48071012042
:1010E000FFF751FA4FF4E0610220FFF74CFA41F2AA
:1010F00030010320FFF747FA00210420FFF743FAED
:1011000040F202210820FFF73EFA00210920FFF7F4
:101110003AFA00210A20FFF736FA00210C20FFF7E7
:1011200032FA00210D20FFF72EFA00210F20FFF7E1
:101130002AFA00211020FFF726FA07211120FFF7D5
:1011400022FA00211220FFF71EFA00211320FFF7D8
:101150001AFA00210720FFF716FA41F290611020D9
:10116000FFF711FA40F227211120FFF70CFA9D2119
:101170001220FFF708FA4FF4C8511320FFF703FAC3
:1011800025212920FFF7FFF90D212B20FFF7FBF97F
:1011900007213020FFF7F7F940F203313120FFF744
:1011A000F2F903213220FFF7EEF940F20621352053
:1011B000FFF7E9F908213620FFF7E5F940F206418B
:1011C0003720FFF7E0F94FF4417100E058E0382094
:1011D000FFF7D9F907213920FFF7D5F940F202616D
:1011E0003C20FFF7D0F908213D20FFF7CCF9002182
:1011F0005020FFF7C8F9EF215120FFF7C4F9002173
:101200005220FFF7C0F940F23F115320FFF7BBF91E
:101210004FF427416020FFF7B6F901216120FFF765
:10122000B2F900216A20FFF7AEF900218020FFF714
:10123000AAF900218120FFF7A6F900218220FFF7FB
:10124000A2F900218320FFF79EF900218420FFF7F7
:101250009AF900218520FFF796F910219020FFF7D9
:1012600092F94FF4C0619220FFF78DF940F23311EB
:101270000720FFF788F922210020FFF784F96EE6A6
:1012800036488088A0F51341283969D141F28F0191
:10129000EC20FFF778F941F23421EF20FFF773F9E2
:1012A0004FF480710120FFF76EF94FF4E0610220E6
:1012B000FFF769F941F230010320FFF764F90021DB
:1012C0000420FFF760F940F202210820FFF75BF9E4
:1012D00000210920FFF757F900210A20FFF753F9F1
:1012E00001210C20FFF74FF900210D20FFF74BF9EA
:1012F00000210F20FFF747F900211020FFF743F9E5
:1013000007211120FFF73FF900211220FFF73BF9D9
:1013100000211320FFF737F901210720FFF733F9E8
:10132000322001F0A7FB41F290411020FFF72BF98A
:1013300040F227211120FFF726F9322001F09AFB15
:101340008A211220FFF71FF9322001F093FB4FF49E
:10135000D0511320FFF717F9062102E03C000020CE
:101360008BE02920FFF70FF90D212B20FFF70BF958
:10137000322001F07FFB00212020FFF704F900213B
:101380002120FFF700F9322001F074FB002130200A
:10139000FFF7F9F840F204613120FFF7F4F840F26A
:1013A00005313220FFF7EFF800213520FFF7EBF889
:1013B00040F609413620FFF7E6F84FF40171372077
:1013C000FFF7E1F840F201313820FFF7DCF840F296
:1013D00007713920FFF7D7F800213C20FFF7D3F839
:1013E00040F60A213D20FFF7CEF8322001F042FB03
:1013F00000215020FFF7C7F8EF215120FFF7C3F875
:1014000000215220FFF7BFF840F23F115320FFF7B1
:10141000BAF84FF427416020FFF7B5F801216120A9
:10142000FFF7B1F800216A20FFF7ADF80021802016
:10143000FFF7A9F800218120FFF7A5F800218220FD
:10144000FFF7A1F800218320FFF79DF800218420F9
:10145000FFF799F800218520FFF795F810219020DB
:10146000FFF791F84FF4C0619220FFF78CF840F23B
:1014700033110720FFF787F871E5FE488088A0F553
:10148000134120397ED10846FFF77DF84FF4807173
:101490000120FFF778F84FF4E0610220FFF773F8BE
:1014A00041F230010320FFF76EF800210420FFF71E
:1014B0006AF840F202210820FFF765F800210920B0
:1014C000FFF761F800210A20FFF75DF801210C20E9
:1014D000FFF759F800210D20FFF755F800210F20E4
:1014E000FFF751F8322001F0C5FA40F20111072050
:1014F000FFF749F8322001F0BDFA4FF48651102071
:10150000FFF741F807211120FFF73DF84FF48871EC
:101510001220FFF738F84FF430611320FFF733F84B
:1015200000212920FFF72FF844F210012B20FFF7AC
:101530002AF800215020FFF726F8EF215120FFF76D
:1015400022F800215220FFF71EF840F23F115320ED
:10155000FFF719F84FF41C516020FFF714F8012130
:101560006120FFF710F800216A20FFF70CF8002136
:101570008020FFF708F800218120FFF704F8002100
:10158000822000E02CE0FEF7FEFF00218320FEF722
:10159000FAFF00218420FEF7F6FF00218520FEF7E8
:1015A000F2FF10219020FEF7EEFF00219220FEF7BF
:1015B000EAFF01219320FEF7E6FF4FF488719520A2
:1015C000FEF7E1FF00219720FEF7DDFF00219820C4
:1015D000FEF7D9FF40F273110720FEF7D4FFBEE4F7
:1015E000A4488088A0F5134131397DD141F214011E
:1015F000E720FEF7C8FF4FF480710120FEF7C3FF1C
:101600004FF400710220FEF7BEFF41F238010320C3
:10161000FEF7B9FF40F202210820FEF7B4FF0021D7
:101620000920FEF7B0FF00210A20FEF7ACFF0021E1
:101630000C20FEF7A8FF00210D20FEF7A4FF0021DB
:101640000F20FEF7A0FF00211020FEF79CFF0721CE
:101650001120FEF798FF00211220FEF794FF0021D1
:101660001320FEF790FFC82001F004FA41F29061C8
:101670001020FEF788FF40F227211120FEF783FF9C
:10168000322001F0F7F90C211220FEF77CFF322006
:1016900001F0F0F94FF400611320FEF774FF1121FF
:1016A0002920FEF770FF0B212B20FEF76CFF322064
:1016B00001F0E0F900212020FEF765FF40F23F1124
:1016C0002120FEF760FF00213020FEF75CFF4FF481
:1016D00083713120FEF757FF00213220FEF753FFC0
:1016E0004FF40171352000E064E0FEF74CFF41F259
:1016F0000A613620FEF747FF40F207713720FEF7F8
:1017000042FF4FF483713820FEF73DFF40F207712E
:101710003920FEF738FF40F202413C20FEF733FF4C
:1017200040F60F413D20FEF72EFF00215020FEF72E
:101730002AFFEF215120FEF726FF00215220FEF75D
:1017400022FF40F23F115320FEF71DFF4FF41C51C2
:101750006020FEF718FF01216120FEF714FF002131
:101760006A20FEF710FF00218020FEF70CFF002109
:101770008120FEF708FF00218220FEF704FF0021F0
:101780008320FEF700FF00218420FEF7FCFE0021ED
:101790008520FEF7F8FE10219020FEF7F4FE4FF4AE
:1017A000C0619220FEF7EFFE40F233110720FEF7F2
:1017B000EAFE86E42F488088A0F5A84108397DD14B
:1017C0004FF480710120FEF7DEFE4FF4E06102204D
:1017D000FEF7D9FE41F230010320FEF7D4FE0021CE
:1017E0000420FEF7D0FE40F207210820FEF7CBFED2
:1017F00000210920FEF7C7FE00210A20FEF7C3FEE4
:1018000000210C20FEF7BFFE00210D20FEF7BBFEDD
:1018100000210F20FEF7B7FE142001F02BF941F252
:10182000B0611020FEF7AFFE01211120FEF7ABFEE4
:1018300001211720FEF7A7FE4FF49C711220FEF73E
:10184000A2FE4FF400611320FEF79DFE092129201E
:10185000FEF799FE09212A20FEF795FE0021A4201B
:10186000FEF791FE00215020FEF78DFEEF21512062
:1018700002E000003C000020FEF785FE002152201F
:10188000FEF781FE40F23F115320FEF77CFE4FF43D
:101890001C516020FEF777FE01216120FEF773FEE8
:1018A00000216A20FEF76FFE00218020FEF76BFE0C
:1018B00000218120FEF767FE002100E028E0822061
:1018C000FEF761FE00218320FEF75DFE00218420EB
:1018D000FEF759FE00218520FEF755FE13219020CA
:1018E000FEF751FE00219220FEF74DFE03219320CA
:1018F000FEF749FE4FF488719520FEF744FE40F252
:1019000073110720FEF73FFE322001F0B3F8B6E472
:10191000FE488088A0F5A85105397DD10720FEF743
:1019200032FE322001F0A6F84FF48E711220FEF73D
:101930002AFE0121A420FEF726FE0F210820FEF733
:1019400022FE08210A20FEF71EFE08210D20FEF7C8
:101950001AFE40F207713020FEF715FE07213120F4
:10196000FEF711FE40F203613220FEF70CFE4FF449
:10197000E0613320FEF707FE40F202213420FEF73B
:1019800002FE02213520FEF7FEFD41F60F713620E2
:10199000FEF7F9FD40F207713720FEF7F4FD002154
:1019A0003820FEF7F0FD00213920FEF7ECFD40F273
:1019B00007713A20FEF7E7FD00213B20FEF7E3FD2B
:1019C00007213C20FEF7DFFD00213D20FEF7DBFD77
:1019D000322001F04FF801210720FEF7D4FD01214C
:1019E0001720FEF7D0FD322001F044F84FF4BD512E
:1019F0001020FEF7C8FD40F217211120FEF7C3FDAD
:101A00004FF48F711220FEF7BEFD4FF4706113206A
:101A1000FEF7B9FD002100E094E02A20FEF7B3FDB7
:101A20000A212920FEF7AFFD4FF49F711220FEF727
:101A3000AAFD00215020FEF7A6FDEF215120FEF760
:101A4000A2FD00215220FEF79EFD40F23F115320DF
:101A5000FEF799FD4FF41C516020FEF794FD012123
:101A60006120FEF790FD00216A20FEF78CFD002129
:101A70008020FEF788FD00218120FEF784FD0021F3
:101A80008220FEF780FD00218320FEF77CFD0021EF
:101A90008420FEF778FD00218520FEF774FD1321D8
:101AA0009020FEF770FD4FF440719220FEF76BFD21
:101AB00005219320FEF767FD00219520FEF763FDC9
:101AC00000219720FEF75FFD00219820FEF75BFDC7
:101AD0004FF480710120FEF756FD4FF4E0610220C3
:101AE000FEF751FD41F238010320FEF74CFD0021C5
:101AF0000420FEF748FD00210C20FEF744FD0021E4
:101B00000F20FEF740FD00212020FEF73CFD0021C4
:101B10002120FEF738FD21210720FEF734FD142097
:101B200000F0A8FF61210720FEF72DFD142000F032
:101B3000A1FF40F273110720FEF725FD142000F0ED
:101B400099FF99E471488088A0F5354105397DD128
:101B50000846FEF718FD00210846FEF714FD002197
:101B60000846FEF710FD00210846FEF70CFD012196
:101B7000A420FEF708FD142000F07CFF4FF41C5158
:101B80006020FEF700FD40F202210820FEF7FBFC7A
:101B90004FF405713020FEF7F6FC43F21571312049
:101BA000FEF7F1FC40F204613220FEF7ECFC40F657
:101BB00016613320FEF7E7FC42F211213420FEF7D4
:101BC000E2FC4FF4A8513520FEF7DDFC48F2075146
:101BD0003620FEF7D8FC41F207413720FEF7D3FC50
:101BE00041F203413820FEF7CEFC20213920FEF7D8
:101BF000CAFC1A219020FEF7C6FC00211020FEF737
:101C0000C2FC07211120FEF7BEFC00211220FEF7C6
:101C1000BAFC00211320FEF7B6FC142000F02AFFC6
:101C20004FF4E6611020FEF7AEFC40F237111120B0
:101C3000FEF7A9FC142000F01DFF4FF4DC71122008
:101C4000FEF7A1FC142000F015FF00E086E04FF441
:101C500070611320FEF797FC80212A20FEF793FC89
:101C600048212920FEF78FFC142000F003FF4FF4D9
:101C700080710120FEF787FC4FF4E0610220FEF73F
:101C800082FC41F238010320FEF77DFC40F2022184
:101C90000820FEF778FC00210A20FEF774FC0021E2
:101CA0000C20FEF770FC00210D20FEF76CFC3021AB
:101CB0000E20FEF768FC00215020FEF764FCEF21A7
:101CC0005120FEF760FC00215220FEF75CFC40F240
:101CD0003F115320FEF757FC4FF41C516020FEF7D4
:101CE00052FC01216120FEF74EFC00216A20FEF724
:101CF0004AFC11219020FEF746FC4FF4C06192206F
:101D0000FEF741FC40F20241932001E03C0000203C
:101D1000FEF739FC02219420FEF735FC142000F078
:101D2000A9FE01210720FEF72EFC142000F0A2FEE0
:101D300061210720FEF727FC40F273110720FEF710
:101D400022FC00212020FEF71EFC00212120FEF7AE
:101D50001AFC22210020FEF716FC11E3FE488088C1
:101D6000A0F5454105397DD10846FEF70CFC002160
:101D70000846FEF708FC142000F07CFE002108460F
:101D8000FEF701FC00210846FEF7FDFB0021084696
:101D9000FEF7F9FB00210846FEF7F5FB0121A42020
:101DA000FEF7F1FB142000F065FE4FF41C5160209B
:101DB000FEF7E9FB40F606010820FEF7E4FB40F2DF
:101DC00003713020FEF7DFFB01213120FEF7DBFB42
:101DD00004213220FEF7D7FB4FF481713320FEF748
:101DE000D2FB4FF440713420FEF7CDFB40F20311DB
:101DF0003520FEF7C8FB1F213620FEF7C4FB40F25A
:101E000003713720FEF7BFFB01213820FEF7BBFB33
:101E100004213920FEF7B7FB15219020FEF7B3FB14
:101E20004FF482611020FEF7AEFB40F247211120F3
:101E3000FEF7A9FB4FF4DE711220FEF7A4FB4FF46E
:101E400060611320FEF79FFB782000F013FE4FF433
:101E500080710120FEF797FB4FF400710220FEF71E
:101E600092FB00E050E041F230010320FEF78BFBD3
:101E700008210A20FEF787FB00210C20FEF783FBD8
:101E800020210E20FEF77FFB00210F20FEF77BFBB9
:101E900000212020FEF777FB00212120FEF773FBB5
:101EA0003D212A20FEF76FFB142000F0E3FD2D21D9
:101EB0002920FEF768FB00215020FEF764FB4DF25D
:101EC000EF015120FEF75FFB00215220FEF75BFB84
:101ED00040F23F115320FEF756FB00216120FEF730
:101EE00052FB00216A20FEF74EFB4FF44071922016
:101EF000FEF749FB05219320FEF745FB4FF4807167
:101F00000720FEF740FB3BE293488088A0F509419B
:101F100089397DD101210020FEF735FB4AF6A40165
:101F20000320FEF730FB00210C20FEF72CFB40F6CF
:101F30000C010D20FEF727FB4FF42C510E20FEF76D
:101F400022FBB0211E20FEF71EFB42F63F3101208E
:101F5000FEF719FB4FF4C0610220FEF714FB0021CD
:101F60001020FEF710FB46F278011120FEF70BFB64
:101F700000210520FEF707FB00210620FEF703FBEA
:101F80004EF61C711620FEF7FEFA03211720FEF70D
:101F9000FAFA40F233210720FEF7F5FA00210B2070
:101FA000FEF7F1FA00210F20FEF7EDFA00214120A3
:101FB000FEF7E9FA00214220FEF7E5FA0021482069
:101FC000FEF7E1FA40F23F114920FEF7DCFA00216A
:101FD0004A20FEF7D8FA00214B20FEF7D4FA4FF43E
:101FE0006F414420FEF7CFFA00214520FEF7CBFADF
:101FF00040F23F114620FEF7C6FA40F2077130204A
:10200000FEF7C1FA4FF401713120FEF7BCFA00E08F
:102010003DE04FF401713220FEF7B5FA40F2025173
:102020003320FEF7B0FA40F207513420FEF7ABFA46
:102030004FF401713520FEF7A6FA4FF401713620F6
:10204000FEF7A1FA40F202513720FEF79CFA40F267
:1020500002313A20FEF797FA40F202313B20FEF7B8
:1020600092FA00212320FEF78EFA00212420FEF7A9
:102070008AFA4FF400412520FEF785FA00214F200F
:10208000FEF781FA00214E20FEF77DFA78E1324812
:102090008088A0F58A4131395DD101210020FEF709
:1020A00072FA0A2000F0E6FC41F228611020FEF7E7
:1020B0006AFA0E211220FEF766FA40F63921132043
:1020C000FEF761FA0A2000F0D5FC40211120FEF74E
:1020D0005AFA50211520FEF756FA0A2000F0CAFCE1
:1020E0001E211220FEF74FFA0A2000F0C3FC4FF425
:1020F000B1511020FEF747FA42F639211320FEF7BE
:1021000042FA0A2000F0B6FC4FF480710120FEF77D
:102110003AFA4FF440710220FEF735FA41F23801E5
:102120000320FEF730FA40F202210820FEF72BFAD6
:1021300008210A20FEF727FA00213020FEF723FAB3
:1021400040F202413120FEF71EFA4FF48371322033
:10215000FEF719FA02E05EE03C00002040F2035175
:102160003320FEF710FA4FF482713420FEF70BFA99
:1021700040F201313520FEF706FA40F207713620B1
:10218000FEF701FA40F205313720FEF7FCF94FF473
:1021900002713820FEF7F7F940F60B713920FEF78F
:1021A000F2F902214120FEF7EEF94FF41C516020B4
:1021B000FEF7E9F901216120FEF7E5F94FF404711A
:1021C0009020FEF7E0F94FF485719220FEF7DBF9DD
:1021D00004219320FEF7D7F94FF48071A020FEF779
:1021E000D2F901210720FEF7CEF921210720FEF7C1
:1021F000CAF923210720FEF7C6F933210720FEF78D
:10220000C2F940F233110720FEF7BDF90021A020EA
:10221000FEF7B9F9B4E0FB488088A0F58A4135396A
:10222000F8D130211520FEF7AEF910219A20FEF7E3
:10223000AAF920211120FEF7A6F943F22841102027
:10224000FEF7A1F902211220FEF79DF941F23801B3
:102250001320FEF798F9282000F00CFC1221084604
:10226000FEF791F9282000F005FC43F220411020F0
:10227000FEF789F943F238011320FEF784F946206E
:1022800000F0F8FB00213020FEF77DF940F202411A
:102290003120FEF778F940F207313220FEF773F96A
:1022A0004FF441713320FEF76EF904213420FEF71C
:1022B0006AF940F201413520FEF765F940F20771F5
:1022C0003620FEF760F940F205313720FEF75BF962
:1022D0004FF4C2613820FEF756F94FF4C26139203D
:1022E000FEF751F94FF480710120FEF74CF94FF4DD
:1022F00040710220FEF747F941F230010320FEF75A
:1023000042F940F608010820FEF73DF908210A20AD
:10231000FEF739F94FF41C516020FEF734F9012122
:102320006120FEF730F94FF49F719020FEF72BF9F2
:102330004FF480719220FEF726F94FF480719320BC
:10234000FEF721F94FF44051A020FEF71CF91021AF
:10235000A320FEF718F901210720FEF714F9212127
:102360000720FEF710F923210720FEF70CF933218F
:102370000720FEF708F940F233110720FEF703F9B2
:102380000020FEF753FB00209F4908604FF6FF70C6
:10239000FEF7C3FB1FB000BD2DE9F04F05460E460A
:1023A00017469846DDF824A04FF0000B781B401C20
:1023B0001FFA80FB344613E021462846FEF710F949
:1023C000FEF7F1F84FF0000906E05046FEF7D3F8AB
:1023D00009F101001FFA80F9D945F6DB601C84B2CF
:1023E0004445E9DDBDE8F08F2DE9F84F07460D467D
:1023F00090469946DDF828B0A8EB0700401C80B253
:102400000090A9EB0500401C1FFA80FA002415E09B
:10241000281981B23846FEF7E3F8FEF7C4F8002623
:1024200007E004FB0A603BF8100078490880701C44
:1024300086B200988642F4DB601C84B25445E7DB28
:10244000BDE8F88F2DE9FF4F84B081468A46002011
:10245000039002900698A0EB09050798A0EB0A06E6
:10246000CDF80490CDF800A0002D01DD012705E096
:102470000DB9002702E04FF0FF376D42002E02DD5C
:102480004FF0010806E016B94FF0000802E04FF0E7
:10249000FF387642B54201DD2C4600E034464FF06D
:1024A000000B21E0009A91B2019A90B2FEF770FA07
:1024B0000398284403900298304402900398A04265
:1024C00005DD0398001B03900198384401900298A1
:1024D000A04205DD0298001B029000984044009045
:1024E0000BF101001FFA80FB601C8345DADD08B0A8
:1024F000BDE8F08FF0B504460D4616461F462B4644
:10250000324629462046FFF79DFF3B462246294694
:102510002046FFF797FF3B46324639462046FFF7F5
:1025200091FF3B46324629463046FFF78BFFF0BD10
:102530002DE9F04306460F46904600244546032009
:10254000A0EB48093CE07A1B91B2321990B2FEF739
:102550001FFA3A1B91B2721990B2FEF719FA3A19A2
:1025600091B2721990B2FEF713FA7A1991B2321938
:1025700090B2FEF70DFA7A1991B2321B90B2FEF7C3
:1025800007FA3A1991B2721B90B2FEF701FA7A1B60
:1025900091B2321B90B2FEF7FBF93A1B91B2721B5B
:1025A00090B2FEF7F5F9641CB9F1000F03DAA00050
:1025B000801D814404E0601B80000A3081446D1E50
:1025C000AC42C0DDBDE8F0832DE9F84F05460F466B
:1025D00090461E4600970E48B0F80090A8F12000E3
:1025E00000F0FF080A98002859D1002454E00C2E6E
:1025F00012D108EB4800074901EB800010F804A055
:102600000FE000003C0000208081214200000260B9
:102610001400002080450008B94800EB081010F8AD
:1026200004A04FF0000B31E01AF0800F03D0B54842
:10263000A0F8009003E0B4480088B2490880394609
:102640002846FEF7A5F94FEA4A604FEA106A781C5F
:1026500087B2AE484088A84204DCAA48A0F800909F
:10266000BDE8F88F0098381AB0420BD1009F681C63
:1026700085B2A6480088A84203DCA248A0F80090D2
:10268000EEE706E00BF1010000F0FF0BBBF1080FD5
:10269000CADB00BF601CC4B2B442A8DB44E0002423
:1026A00040E00C2E07D108EB4800994901EB80006F
:1026B00010F804A004E0924800EB081010F804A001
:1026C0004FF0000B28E01AF0800F03D0394628465F
:1026D000FEF75EF94FEA4A604FEA106A781C87B24B
:1026E0008A484088A84203DC8648A0F80090B7E7F3
:1026F0000098381AB0420BD1009F681C85B28348FD
:102700000088A84203DC7F48A0F80090A8E706E014
:102710000BF1010000F0FF0BBBF1080FD3DB00BF92
:10272000601CC4B2B442BCDB7648A0F8009000BF85
:1027300096E710B50246012000E050430B00A1F1DE
:102740000104E1B2F9D110BD2DE9FF4F81B0074678
:1027500091461E460E9D4FF0000A002439E0301BC2
:10276000401EC1B20A20FFF7E4FFB9FBF0F00A21D6
:10277000B0FBF1F201FB1208BAF1000F16D1701E86
:10278000A04213DDB8F1000F0ED10020AB4605EBDF
:10279000DB71491001FB0471009088B22B462022A6
:1027A0000299FFF711FF12E04FF0010A0020AB463B
:1027B00005EBDB71491001FB0471009088B208F150
:1027C0003001CAB22B460299FFF7FEFE00BF601C23
:1027D000C4B2B442C3DB05B0BDE8F08F2DE9FF4FB2
:1027E00082B0064692461F46DDE90F480020019060
:1027F00000254DE0781B401EC1B20A20FFF799FF6B
:10280000BAFBF0F00A21B0FBF1F201FB12090198CA
:1028100050BB781EA84227DDB9F1000F22D118F075
:10282000800F0FD008F00100A34604EBDB714910C4
:1028300001FB0561009088B2234630220399FFF71F
:10284000C3FE0EE008F00100A34604EBDB71491063
:1028500001FB0561009088B2234620220399FFF70F
:10286000B3FE13E00120019008F00100A34604EB41
:10287000DB71491001FB0561009088B209F130015C
:10288000CAB223460399FFF79FFE00BF681CC5B27A
:10289000BD42AFDB06B0BDE8F08F2DE9F847044636
:1028A0000D4690469946DDE9096704F0FF0A08EBFA
:1028B00004001FFA80F809EB05001FFA80F916E002
:1028C000444502DB5446A81985B24D4500DB14E0AF
:1028D000002000903A78334629462046FFF774FEE0
:1028E000304606EBD07104EB61018CB27F1C387866
:1028F0007E2802DC38782028E2DA00BFBDE8F887BD
:10290000F449000814000020160000203C000020BC
:102910008045000800B587B001214FF4047001F034
:1029200093FA4FF4004001F0F6F90120ADF80400ED
:1029300000208DF8070001A92E4800F0D3FF2E4893
:1029400000F046FA002002908DF80C008DF80D0082
:102950004FF4602004900020059001208DF81800AD
:1029600002A9254800F05BFA0121234800F083FA10
:10297000214800F0A2FA00BF1F4800F0A3FA002887
:10298000FAD11D4800F0A8FA00BF1B4800F0A9FAD0
:102990000028FAD107B000BD10B504460723012274
:1029A0002146154800F0D3FA0121134800F0A3FA9C
:1029B00000BF0221104800F0F9FB0028F9D00E48B2
:1029C00000F02CFB10BD2DE9F04107460C46002518
:1029D000002608E03846FFF7DFFF0544052000F039
:1029E00049F8701CC6B2A642F4DBB5FBF4F080B225
:1029F000BDE8F081001001400024014010B56FF0E7
:102A0000040000F0C7F92D4800682D49B0FBF1F033
:102A10002C4908700846007800EB4001C1EBC0105B
:102A20004FF6FF7101EAC0002749088010BD01463A
:102A3000244A12784A434FF0E0235A6100229A61F7
:102A40001A46126942F001021A6100BF4FF0E022FB
:102A5000106910F0010F02D010F4803FF6D04FF053
:102A6000E022126922F001024FF0E0231A610022F5
:102A70009A6170470146144A12884A434FF0E02396
:102A80005A6100229A611A46126942F001021A61E3
:102A900000BF4FF0E022106910F0010F02D010F4D7
:102AA000803FF6D04FF0E022126922F001024FF091
:102AB000E0231A6100229A617047000000000020A4
:102AC00000127A00180000201A00002010B54FF400
:102AD000A06000F00FF910BD014600BF704770B54F
:102AE00004460D4600BF40216A4801F0BFFB0028A4
:102AF000F9D0E1B2674801F04BFB204670BD10B53C
:102B000086B00446012144F2040001F09DF96148B9
:102B100001F002FA4FF40070ADF8140003208DF8B4
:102B2000160018208DF8170005A95B4800F0DAFEA2
:102B30004FF48060ADF8140004208DF8170005A94B
:102B4000554800F0CFFE01940020ADF80800ADF824
:102B50000A00ADF80C00ADF810000C20ADF80E0026
:102B600001A94C4801F01BFA25208DF80000032034
:102B70008DF801008DF8020001208DF803006846F1
:102B800000F0BDF8012240F22551424801F09FFAC1
:102B90000121404801F08FFA06B010BD70B540F237
:102BA00025513C4801F078FB002872D0394801F0EB
:102BB000F3FAC4B23948007820B101280DD00228B8
:102BC00065D120E0552C07D10120344908703448E4
:102BD0000078401C324908705AE0AA2C0DD102201E
:102BE0002E4908702E480078401C2D490870552049
:102BF0002C490870AA20487004E00020274908707A
:102C00002749087044E0772C36D1264824490978B2
:102C1000445423480078401C21490870002508E0EE
:102C20002048405D2049097848401F490870681CC9
:102C3000C5B21B480078801EA842F1DC1848007815
:102C4000801E1849085C1849097888420ED1012075
:102C5000164908701248007815490870002012497A
:102C600008700E4908700E4908700EE000200B49EC
:102C700008700B49087008E00A480949097844546B
:102C800007480078401C0649087001E001E000BFD9
:102C900000BF70BD00380140000801401C0000204A
:102CA0001E000020460000201D0000201F00002004
:102CB000200000200948804709480047FEE7FEE75A
:102CC000FEE7FEE7FEE7FEE7FEE7FEE7FEE7FEE7DC
:102CD00004480549054A064B7047000015040008E2
:102CE00031010008E8000020E8060020E80200208A
:102CF000E802002031490143314A1160704770B544
:102D0000002100230F22C4780CB32D4C246804F456
:102D1000E064C4F5E064210AC1F10403CA404478C8
:102D200004FA03F18478144021430901254C067804
:102D3000A155047804F01F050124AC4005786D11FD
:102D40004FF0E02606EB8505C5F8004109E0047860
:102D500004F01F050124AC401B4D0678761145F8A0
:102D6000264070BD194A0A400243154B1B1F1A60CA
:102D7000704739B1124A121D12680243104B1B1DD5
:102D80001A6006E00E4A121D126882430C4B1B1D8E
:102D90001A607047042808D14FF0E021096941F01A
:102DA00004014FF0E022116107E04FF0E0210969D2
:102DB00021F004014FF0E022116170470000FA0594
:102DC0000CED00E000E400E080E100E080FFFF1F88
:102DD00010B50446F948844208D10121401501F09C
:102DE0004DF80021601501F049F817E0F4488442DD
:102DF00008D10121001501F041F80021201501F052
:102E00003DF80BE0EF48844208D10121C80301F0EE
:102E100035F800214FF4004001F030F810BD30B516
:102E20000246002000235068E74C20400D790C68D2
:102E300044EA0524204350609068E44C2040D1E9E6
:102E400002542C434D7944EA450420439060D06AF3
:102E500020F470000C7C641EE4B2234340EA03506B
:102E6000D06230BD00210160017141718160C1609B
:102E700001210174704721B1826842F00102826031
:102E800003E0826822F001028260704721B182680B
:102E900042F48072826003E0826822F48072826071
:102EA000704710B50023CBB21AB144681C4344608C
:102EB00002E044689C43446010BD816841F0080111
:102EC00081607047014600208A6812F0080F01D027
:102ED000012000E000207047816841F0040181601A
:102EE0007047014600208A6812F0040F01D00120CB
:102EF00000E00020704721B1826842F4A0028260A5
:102F000003E0826822F4A00282607047014600203C
:102F10008A6812F4800F01D0012000E00020704781
:102F200010B50A4600210023416821F46041531E78
:102F300041EA4331416010BD21B1426842F4006270
:102F4000426003E0426822F4006242607047F0B5DC
:102F500004460D4600200021092D11DDE068A5F191
:102F60000A0606EB4607072606FA07F18843A5F18D
:102F70000A0606EB460603FA06F10843E0600CE099
:102F8000206905EB4507072606FA07F1884305EB9C
:102F9000450603FA06F108432061072A0FDA606B41
:102FA000561E06EB86071F2606FA07F18843561EB3
:102FB00006EB860605FA06F10843606322E00D2A57
:102FC0000FDA206BD61F06EB86071F2606FA07F1DD
:102FD0008843D61F06EB860605FA06F108432063F0
:102FE00010E0E06AA2F10D0606EB86071F2606FA3E
:102FF00007F18843A2F10D0606EB860605FA06F1F5
:103000000843E062F0BD21B1826842F48012826020
:1030100003E0826822F48012826070470146C86C27
:1030200080B2704765484C300068704721B14268F3
:1030300042F48062426003E0426822F480624260AF
:10304000704721B1426842F48052426003E0426816
:1030500022F48052426070470A460021816821F4C0
:10306000E04111438160704721B1826842F400421F
:10307000826003E0826822F400428260704721B1DE
:10308000826842F40212826003E0826822F4021233
:1030900082607047014600208A6812F4001F01D048
:1030A000012000E000207047F0B5044615460020DE
:1030B00000220026092911DDE068A1F10A0707EBCB
:1030C000470C072707FA0CF29043A1F10A0707EB18
:1030D000470703FA07F21043E0600CE0206901EBB8
:1030E000410C072707FA0CF2904301EB410703FA62
:1030F00007F210432061A06BC0F30156EF1C06F1EC
:10310000010CA7EB0C0707EB870C1F2707FA0CF243
:103110009043EF1C06F1010CA7EB0C0707EB8707A8
:1031200001FA07F21043A063F0BD10B50A46002172
:103130000023816B21F44011531E41EA0351816346
:1031400010BD10B5002303460B441A6010BD0246A3
:103150000023134601F128000344186880B2704729
:103160000A46002141681A4B1940114341607047DB
:103170004162826270470A460021416821F01F01C6
:1031800011434160704740B10C490831096841F46E
:1031900000010A4A0832116007E00849083109684D
:1031A00021F40001054A08321160704702460020F0
:1031B00013680B420ED001200DE0000000240140F6
:1031C00000280140003C0140FFFEF0FFFDF7F1FF49
:1031D000FFFD3FFF00207047CA430260704770B593
:1031E00002460020002300240B125568CEB205EAE7
:1031F000060415681D4202D00CB1012000E0002039
:1032000070BD00220A12D3430360704730B943F205
:10321000DB014FF0204242F8201005E043F2D201DA
:103220004FF0204242F820106FF07042411C4FF0E6
:10323000204343F8212011461A4602EB8002C2F8CF
:103240000411704710280AD118214FF0204211664E
:10325000402151664FF0FC319166D16610E0182193
:10326000F84A11604FF040014FF02042C2F884103C
:103270004FF0FC31F44A11604FF02042C2F88C103C
:1032800070471820F14908604FF000004FF02041CE
:10329000C1F8A4004FF0FC30ED49086001F10401D1
:1032A000086001F1040108607047D0E90112114380
:1032B000C268114302691143426911438269114393
:1032C000C2691143026A1143426A1143826A11437F
:1032D000C26A1143026B11434FF02043026843F866
:1032E00022108168082908D11A46016852F8211075
:1032F00041F04001026843F82210416B0968426BBB
:10330000526841EA0211426B926841EA0221426B23
:10331000928941EA0241426B128A41EA0251426BB0
:10332000127D41EA0261426B926911430268521CAC
:103330004FF0204343F82210C16AB1F5804F1AD1F3
:10334000816B0968826B526841EA0211826B926854
:1033500041EA0221826B128A41EA0251826B127D9C
:1033600041EA0261826B92691143026803EB8202B7
:10337000C2F8041108E06FF070414FF0204302687A
:1033800003EB8202C2F80411704730B5002100221D
:103390000023446844F0080485682C43C5682C4326
:1033A00005692C43456944EA4524856944EA453169
:1033B000C4692468C5696D6844EA0524C5692D8916
:1033C00044EA0544C5692D7B44EA0562046A246821
:1033D000056A6D6844EA0524056A2D8944EA0544B6
:1033E000056A2D7B44EA05630468102C05D14FF073
:1033F00020442166A266E36607E0924C21604FF00C
:103400002044C4F88820934C236030BD016841F00B
:103410001001426841EA4221826841EA42318B4A06
:103420001160C1680968C268526841EA0221C26835
:10343000128941EA0241C268127B41EA0261844A70
:103440001160016909680269526841EA0221026952
:10345000128941EA02410269127B41EA02617E4A15
:103460001160416909684269526841EA0221426972
:10347000128941EA02414269127B41EA02614FF03E
:103480002042C2F8B0107047002101600221416063
:1034900000218160C160016141618161C16101629E
:1034A0004FF480514162490081620021C162016391
:1034B0000F21426B1160426B5160FF21426B9160A2
:1034C0000F21426BD160426B1161426B516100214F
:1034D000426B91610F21826B1160826B5160FF2101
:1034E000826B91600F21826BD160826B1161826B64
:1034F00051610021826B91617047102101600021B0
:1035000041608160C160016141618161FC21C269EA
:103510001160C2695160C2699160C269D160026A7A
:103520001160026A5160026A9160026AD16070475C
:103530000021016041608160FC21C2681160C268A5
:103540005160C2689160C268D1600269116002690D
:103550005160026991600269D160426911604269FB
:103560005160426991604269D160704751B14FF03A
:10357000204252F8202042F001024FF0204343F84D
:10358000202009E04FF0204252F82020334B1A400F
:103590004FF0204343F82020704799B1102808D1FC
:1035A0004FF02042126E42F004024FF020431A66A0
:1035B0001DE0244A126842F004024FF02043C3F891
:1035C000802014E0102809D14FF02042126E234BC6
:1035D000DB1E1A404FF020431A6608E0194A1268B1
:1035E0001F4B02EA03024FF02043C3F880207047CC
:1035F00040B11649096841F004014FF02042C2F879
:10360000A01008E011490968154A01EA02014FF0CB
:103610002042C2F8A010704799B1102808D14FF08D
:103620002042126E42F040024FF020431A662DE015
:10363000044A126842F040024FF02043C3F8802051
:1036400024E00FE0800000A0880000A0A00000A0FF
:10365000A80000A08C0000A0AC0000A0FEFF0F009E
:10366000FBFF0F00102808D14FF02042126E684B6C
:103670001A404FF020431A6608E0664A1268644B0D
:1036800002EA03024FF02043C3F88020704701464E
:103690000020102903D14FF02042506F01E05E4A14
:1036A0001068704710B5F2B1102807D14FF02043D1
:1036B0005B6E0B434FF02044636632E0B0F5807FD1
:1036C00008D1564B1B6843EA01034FF02044C4F86D
:1036D000843026E0524B1B6843EA01034FF020443C
:1036E000C4F8A4301DE0102807D14FF020435B6ED2
:1036F0008B434FF02044636613E0B0F5807F08D120
:10370000464B1B6823EA01034FF02044C4F8843081
:1037100007E0434B1B6823EA01034FF02044C4F841
:10372000A43010BD10B5024600200023102A03D19A
:103730004FF02044636E07E0B2F5807F02D1374C32
:10374000236801E0364C23680B4201D0012000E0E1
:10375000002010BD102807D14FF02042526E8A433E
:103760004FF020435A6613E0B0F5807F08D12B4A12
:10377000126822EA01024FF02043C3F8842007E0D8
:10378000274A126822EA01024FF02043C3F8A4201E
:10379000704770B502460020002300240025102A3F
:1037A00003D14FF02046736E07E0B2F5807F02D15F
:1037B0001A4E336801E01A4E336803EA010403EA43
:1037C000D10514B10DB1012000E0002070BD10281A
:1037D00008D14FF02042526E22EAD1024FF020432E
:1037E0005A6613E0B0F5807F08D10C4A126822EACD
:1037F000D1024FF02043C3F8842007E0084A126842
:1038000022EAD1024FF02043C3F8A4207047000001
:10381000BFFF0F00800000A0940000A0840000A063
:10382000A40000A010B50446CA48844208D1012172
:10383000042000F023FB0021042000F01FFB46E0E1
:10384000C548844208D10121082000F017FB00215F
:10385000082000F013FB3AE0C048844208D101215F
:10386000102000F00BFB0021102000F007FB2EE0E1
:10387000BB48844208D10121202000F0FFFA00213A
:10388000202000F0FBFA22E0B648844208D1012152
:10389000402000F0F3FA0021402000F0EFFA16E09B
:1038A000B148844208D10121802000F0E7FA0021CC
:1038B000802000F0E3FA0AE0AC48844207D10121FD
:1038C000801500F0DBFA0021A01500F0D7FA10BD3A
:1038D00010B50121084600F0D1FA0021012000F0C6
:1038E000CDFA10BD2DE9F04102460025002600204A
:1038F00000230024002791F803C00CF00F0591F875
:1039000003C01CF0100F03D091F802C04CEA05056B
:1039100091F800C0BCF1000F31D0146800202BE0FA
:103920004FF0010C0CFA00F3B1F800C00CEA0306EA
:103930009E4220D183004FF00F0C0CFA03F7BC43DA
:1039400005FA03FC4CEA040491F803C0BCF1280F0B
:1039500006D14FF0010C0CFA00FCC2F814C00AE0CA
:1039600091F803C0BCF1480F05D14FF0010C0CFADF
:1039700000FCC2F810C0401C0828D1D31460B1F874
:1039800000C0BCF1FF0F34DD546800202EE000F1D0
:10399000080C4FF0010808FA0CF3B1F800C00CEA6B
:1039A00003069E4221D183004FF00F0C0CFA03F75F
:1039B000BC4305FA03FC4CEA040491F803C0BCF1D3
:1039C000280F05D100F1080C08FA0CF8C2F8148091
:1039D00091F803C0BCF1480F07D100F1080C4FF07B
:1039E000010808FA0CF8C2F81080401C0828CED351
:1039F0005460BDE8F0814FF6FF71018002218170B3
:103A00000421C17070470246002093680B4201D028
:103A1000012000E0002070470146886880B27047AE
:103A200002460020D3680B4201D0012000E00020B4
:103A300070470146C86880B27047016170474161B4
:103A400070470AB1016100E041617047C160704791
:103A50004FF480320A4382618161826182698269A6
:103A6000704702460020424B18684FF6807318409A
:103A700040EA021008433E4B186070473D49C86158
:103A80007047F0B50A46002300240021002500F00D
:103A90000046B6F1004F02D1354EF16901E0344ED7
:103AA0007168C0F3034583B200F44016B6F5401FB9
:103AB00008D121F070612E4E766826F070662C4F8A
:103AC0007E6012E000F48016B6F5801F06D1032652
:103AD00006FA05F4A14341F0706106E0460D360197
:103AE00003FA06F6B14341F0706122B1460D36018A
:103AF00003FA06F6314300F00046B6F1004F02D15A
:103B00001B4EF16101E01A4E7160F0BD30B500222C
:103B10008B071C0F0F2303FA04F2154B08338C108C
:103B200053F824309343124C08348D1044F8253058
:103B300023468C1053F824308C07240F00FA04F429
:103B400023430B4C08348D1044F8253030BD0A490E
:103B50000860704700080140000C0140001001405F
:103B60000014014000180140001C014000200140E9
:103B70000000014000002042DC002042DB480068D9
:103B800040F00100D949086008464068D84908401B
:103B9000D649486008460068D6490840D3490860BD
:103BA0000846006820F4802008600846406820F439
:103BB000FE0048604FF41F0088607047CB490968D9
:103BC00021F48031C94A11601146096821F480212D
:103BD0001160B0F5803F03D0B0F5802F0ED106E024
:103BE000C249096841F48031C04A116007E0BF4909
:103BF000096841F4A021BD4A116000E000BF00BF88
:103C0000704710B501460022002300204A11012A06
:103C100002D1B64C236806E0022A02D1B34C236AD3
:103C200001E0B24C636A01F01F02012494401C427F
:103C300001D0012000E0002010BD70B50024002557
:103C4000002600BF3120FFF7DCFF0646641CB4F5F8
:103C5000A06F01D0002EF5D03120FFF7D2FF08B1C0
:103C6000012500E00025284670BD014600209F4A3E
:103C7000106820F0F80040EAC100106070479E49CB
:103C80000860704702460020984B586820F47C106A
:103C900042EA01031843954B5860704796490866FD
:103CA000704701460020914A506820F00300084305
:103CB000506070478D48406800F00C007047014626
:103CC00000208A4A506820F0F00008435060704796
:103CD00001460020854A506820F4E06008435060A7
:103CE000704701460020814A506820F4605040EA45
:103CF000C1005060704729B17C4A527A02437B4B25
:103D00005A7204E0794A527A8243784B5A72704769
:103D10007A490860704701460020744A506820F4D0
:103D200040400843506070470021754A11706F4A47
:103D300082F82010012802D0042808D103E00121D4
:103D40006F4A117004E005216D4A117000E000BF58
:103D500000BF70476B49086070476449096A0143B6
:103D6000624A11627047674944390860704730B54C
:103D700000210022002400235C4D6D6805F00C0139
:103D800021B1042905D0082923D105E05E4D056045
:103D900022E05D4D05601FE0544D6D6805F4701222
:103DA000524D6D6805F48034022505EB92421CB932
:103DB000564D554305600BE04C4D6D6815F4003FC2
:103DC00003D0524D5543056002E04F4D5543056009
:103DD00002E04D4D056000BF00BF444D6D6805F029
:103DE000F00109094A4D6B5C0568DD4045603F4DB7
:103DF0006D6805F4E061090A454D6B5C4568DD407E
:103E000085603A4D6D6805F46051C90A404D6B5CA0
:103E10004568DD40C560354D6D6805F44041890B4E
:103E20003C4D6B5CC568B5FBF3F5056130BD29B150
:103E30002E4A526902432D4B5A6104E02B4A5269C3
:103E400082432A4B5A61704729B1284A926902433A
:103E5000264B9A6104E0254A92698243234B9A617A
:103E6000704729B1214AD2690243204BDA6104E04C
:103E70001E4AD26982431D4BDA61704729B11B4A41
:103E8000D2680243194BDA6004E0184AD2688243D0
:103E9000164BDA60704729B1144A12690243134B7A
:103EA0001A6104E0114A12698243104B1A6170478B
:103EB00014494039086070470F49C86470470B497E
:103EC000C87170470948406A40F0807007494862ED
:103ED000704701460020054A92680A4201D001203D
:103EE00000E00020704701498872704700100240CE
:103EF0000000FFF8FFFFF6FE00004242D8004242F9
:103F0000201002408004424200127A0000093D0065
:103F1000280000203800002010B50446FB488442E9
:103F200009D101218803FFF7A9FF00214FF4804048
:103F3000FFF7A4FF32E0F648844209D1012148048A
:103F4000FFF7A9FF00214FF40030FFF7A4FF25E0A1
:103F5000F048844209D101218804FFF79CFF002129
:103F60004FF48020FFF797FF18E0EB48844209D117
:103F70000121C804FFF78FFF00214FF40020FFF755
:103F80008AFF0BE0E548844208D101210805FFF7CC
:103F900082FF00214FF48010FFF77DFF10BD2DE957
:103FA000F04786B005460E460024A24600BFA14653
:103FB0000027B08900B100BF2F462C8A4CF6FF7055
:103FC0000440F08804432C82AC894EF6F310044080
:103FD000B08831890843718908430443AC81AC8AB5
:103FE0004FF6FF400440B0890443AC8201A8FFF7BC
:103FF000BEFEC648874202D1DDF810A001E0DDF820
:104000000CA0A88910F4004F08D00AEBCA0000EBFE
:104010000A1031684900B0FBF1F807E00AEBCA006A
:1040200000EB0A1031688900B0FBF1F86420B8FB9E
:10403000F0F004012009642101FB1089A88910F423
:10404000004F08D0322000EBC900B0FBF1F000F0C7
:104050000700044308E0322000EB09106421B0FBA4
:10406000F1F000F00F0004432C8106B0BDE8F087AA
:104070004FF41651016000218180C18001810C2123
:10408000418100218181704710B502460020108ACD
:104090004FF2FF0318400B884C8823438C8823433E
:1040A000CC8823431843108210BD00210180418039
:1040B0008180C180704721B1828942F4005282819F
:1040C00004E082894DF6FF731A4082817047F0B593
:1040D00003460024002600250020A1F510676A3F52
:1040E00000D100BF1846C1F3421401F01F0601279A
:1040F00007FA06F5012C01D10C3004E0022C01D1A5
:10410000103000E014301AB107682F43076002E056
:104110000768AF430760F0BD1AB1838A0B438382FF
:1041200002E0838A8B4383827047028A4FF6F073E2
:104130001A400282028A0A430282704782894FF241
:10414000FF731A40828182890A438281704721B1BC
:10415000828942F00202828104E082894FF6FD7377
:104160001A4082817047028A4FF6DF731A4002823A
:10417000028A0A430282704721B1028A42F48042D5
:10418000028204E0028A4BF6FF731A4002827047F3
:10419000C1F308028280704701468888C0F3080096
:1041A0007047818941F0010181817047028BD2B251
:1041B0000283028B42EA012202837047028B02F4DF
:1041C0007F420283028B0A430283704721B1828AB5
:1041D00042F02002828204E0828A4FF6DF731A40A6
:1041E0008282704721B1828A42F01002828204E00A
:1041F000828A4FF6EF731A408282704721B1828A19
:1042000042F00802828204E0828A4FF6F7731A4075
:104210008282704721B1828942F40042828103E0A8
:104220008289C2F30E028281704721B1828A42F4F0
:104230000062828204E0828A4FF2FF731A40828217
:104240007047828A4FF6FB731A408282828A0A4341
:104250008282704721B1828A42F00202828204E0A7
:10426000828A4FF6FD731A40828270470246002010
:10427000B1F5007F00D100BF13880B4201D00120AF
:1042800000E00020704701F40072B2F5007F00D119
:1042900000BFCA430280704770B502460024002365
:1042A00000250020A1F510666A3E00D100BFC1F3D1
:1042B000421501F01F03012606FA03F3012D02D176
:1042C0009689334006E0022D02D1168A334001E080
:1042D000968A33400C12012606FA04F416883440FC
:1042E00013B10CB1012000E0002070BD10B5002218
:1042F0000023A1F510646A3C00D100BF0A1201241A
:104300009440A3B2DC43048010BD0000003801409B
:104310000044004000480040004C00400050004075
:10432000704700000FB4044910B503AA029800F0CA
:10433000C9F810BC5DF814FB240000202DE9F04101
:1043400004460E46002020622046E168884738B3C4
:10435000252806D0D4E901219047206A401C20621C
:10436000F2E7E168204600278847050018D0A5F14C
:104370004100192802D820354FF4006732462946FB
:1043800020462760FBF70EFF40B1012804D0F61D40
:1043900026F007060836D7E7361DD5E72846D9E7C1
:1043A000206ABDE8F081000070B504460D46214644
:1043B0001068AFF300802188090502D5104A7A44BD
:1043C00002E00F4A7A440E32002104F1240307E090
:1043D00000F00F064FEA1010965D5E5401F10101E6
:1043E0000028F5D103462078000704D5702D02D0AF
:1043F00009B1113202232046BDE8704000F006B832
:10440000220C000070477047704770472DE9F04755
:104410000D4699469246044600F124080168880634
:1044200004D5E06921F01001216000E00120A842DC
:1044300002DDA0EB050700E00027A16907EB0502FC
:1044400002EB0900A1EB0000A0612078C00602D4B5
:104450002046AFF30080002608E0D4E901211AF8D5
:1044600006009047206A401C761C20624E45F4DB13
:104470002078C0060AD52046AFF3008006E0D4E9D4
:10448000012130209047206A401C2062381EA7F18D
:104490000107F4DC07E0D4E9012118F80500904792
:1044A000206A401C2062281EA5F10105F3DC20468D
:1044B000AFF300802078000602D50220BDE8F08727
:1044C0000120FBE7074B70B50D467B4400F011F867
:1044D0000446284600F020F810B14FF0FF3070BDC0
:1044E000204670BD11E6FFFF01694A1C0261087891
:1044F000704700B58FB0CDE9013100210591054924
:104500007944CDE9031011466846FFF717FF0FB055
:1045100000BD0000E5FFFFFF007B00F0800070475A
:10452000754600F029F8AE4605006946534620F06E
:104530000700854618B020B5FEF7CAFBBDE820404D
:104540004FF000064FF000074FF000084FF0000B4F
:1045500021F00701AC46ACE8C009ACE8C009ACE802
:10456000C009ACE8C0098D4670470446AFF300802F
:104570002046FBF729FE0000004870478400002019
:10458000000000000000000000000000000000002B
:104590003F400000000000000000300040003000FC
:1045A0004000000009000BC03D000BC03D000900A9
:1045B00018C024407FE0224031800000180024C051
:1045C0001B000D803240018003801C4027401C806E
:1045D00007400040100060000000000000000000E4
:1045E0000000000000001F8020404020000040200C
:1045F00020401F8000000000090006001F80060008
:1046000009000000040004003F80040004000000D2
:104610000010006000000000000000000400040022
:10462000040004000400000000000040000000003E
:1046300000000000002001C006003800400000001B
:104640001F802040204020401F80000000001040BC
:104650003FC000400000000018C02140224024401C
:104660001840000010802040244024401B8000009F
:1046700002000D0011003FC0014000003C802440BA
:1046800024402440238000001F80244024403440E4
:10469000038000003000200027C038002000000008
:1046A0001B802440244024401B8000001C0022C0AA
:1046B000224022401F80000000000000084000004F
:1046C0000000000000000000046000000000000086
:1046D000000004000A001100208040400900090089
:1046E000090009000900000000004040208011007E
:1046F0000A000400180020002340240018000000D5
:104700001F802040274029401F400000004007C074
:1047100039000F0001C0004020403FC02440244029
:104720001B8000001F80204020402040308000007F
:1047300020403FC0204020401F80000020403FC05C
:1047400024402E4030C0000020403FC024402E00B6
:10475000300000000F001080204022403380020013
:1047600020403FC0040004003FC0204020402040C3
:104770003FC02040204000000060202020203FC09B
:104780002000200020403FC024400B0030C02040CB
:1047900020403FC020400040004000C03FC03C00DF
:1047A00003C03C003FC0000020403FC00C4023003D
:1047B0003FC020001F802040204020401F8000007C
:1047C00020403FC024402400180000001F802140EA
:1047D000214020E01FA0000020403FC024402600D0
:1047E00019C0004018C024402440224031800000FD
:1047F000300020403FC020403000000020003F80BB
:10480000004000403F80200020003E0001C0070023
:1048100038002000380007C03C0007C03800000006
:10482000204039C0060039C0204000002000384038
:1048300007C0384020000000304021C026403840EA
:1048400020C00000000000007FE040204020000069
:10485000000070000C0003800040000000004020B9
:1048600040207FE000000000000020004000200009
:1048700000000000001000100010001000100010D8
:104880000000000040000000000000000000028066
:104890000540054003C0004020003FC004400440E4
:1048A0000380000000000380044004400640000034
:1048B00000000380044024403FC00040000003800B
:1048C0000540054003400000000004401FC0244094
:1048D00024402000000002E005500550065004204E
:1048E00020403FC00440040003C0004000000440DA
:1048F00027C000400000000000100010041027E056
:104900000000000020403FC00140070004C00440F8
:10491000204020403FC000400040000007C004008D
:1049200007C0040003C00000044007C004400400A6
:1049300003C00040000003800440044003800000E6
:10494000041007F0045004400380000000000380BE
:104950000440045007F00010044007C00240040067
:1049600004000000000006400540054004C00000AF
:10497000000004001F800440004000000400078085
:104980000040044007C000400400070004C001804C
:1049900006000400060001C0070001C00600000078
:1049A000044006C0010006C00440000004100710C7
:1049B00004E00180060004000000044005C0064039
:1049C000044000000000000004007BE040200000E4
:1049D000000000000000FFF0000000000000402088
:1049E0007BE0040000000000400080004000200048
:1049F0002000400000000000000000000000000057
:104A0000000000000000000000001FCC000C0000AF
:104A100000000000000008003000600008003000C6
:104A200060000000022003FC1E20022003FC1E2068
:104A30000220000000000E1811043FFF10840C78C3
:104A4000000000000F0010840F3800C007781884A1
:104A50000078000000780F8410C411240E9800E440
:104A600000840008080068007000000000000000DA
:104A70000000000000000000000007E018182004FB
:104A800040020000000040022004181807E0000067
:104A9000000000000240024001800FF0018002404F
:104AA000024000000080008000800FF8008000803D
:104AB000008000000001000D000E0000000000005A
:104AC0000000000000000080008000800080008066
:104AD000008000800000000C000C000000000000BE
:104AE00000000000000000060018006001800600C1
:104AF00018002000000007F008081004100408083F
:104B000007F000000000080408041FFC0004000473
:104B10000000000000000E0C10141024104411843A
:104B20000E0C000000000C1810041104110412886F
:104B30000C700000000000E00320042408241FFC87
:104B40000024000000001F98108411041104108834
:104B500010700000000007F0088811041104188884
:104B60000070000000001C00100010FC13001C006E
:104B70001000000000000E3811441084108411440D
:104B80000E38000000000700088C1044104408880C
:104B900007F00000000000000000030C030C000000
:104BA00000000000000000000001010600000000FD
:104BB00000000000000000800140022004100808EE
:104BC0001004000002200220022002200220022005
:104BD0000220000000001004080804100220014018
:104BE0000080000000000E001200100C106C1080FD
:104BF0000F00000003E00C1813E4142417C4082865
:104C000007D000000004003C03C41C40074000E43F
:104C1000001C000410041FFC1104110411040E8870
:104C20000070000003E00C181004100410041008B9
:104C30001C10000010041FFC1004100410040808CD
:104C400007F0000010041FFC1104110417C4100425
:104C50000818000010041FFC1104110017C01000F8
:104C60000800000003E00C181004100410441C7825
:104C70000040000010041FFC10840080008010849D
:104C80001FFC10040000100410041FFC100410048A
:104C90000000000000030001100110011FFE1000C1
:104CA0001000000010041FFC110403801464181C81
:104CB0001004000010041FFC100400040004000491
:104CC000000C000010041FFC1F0000FC1F001FFC54
:104CD0001004000010041FFC0C04030000E0101876
:104CE0001FFC100007F00808100410041004080846
:104CF00007F0000010041FFC10841080108010804A
:104D00000F00000007F0081810241024101C080AD7
:104D100007F2000010041FFC1104110011C0113033
:104D20000E0C000400000E1C1104108410841044AA
:104D30001C3800001800100010041FFC10041000A4
:104D40001800000010001FF81004000400041004F4
:104D50001FF8100010001E0011E0001C00701380EE
:104D60001C0010001FC0103C00E01F0000E0103CC1
:104D70001FC000001004180C163401C001C0163406
:104D8000180C100410001C00130400FC13041C0079
:104D9000100000000804101C1064108413041C048C
:104DA000101800000000000000007FFE40024002DA
:104DB00040020000000030000C0003800060001C76
:104DC0000003000000004002400240027FFE00009D
:104DD00000000000000000002000400040004000F3
:104DE000200000000001000100010001000100019D
:104DF0000001000100004000400020000000000011
:104E00000000000000000098012401440144014416
:104E100000FC000410001FFC00880104010400884D
:104E2000007000000000007000880104010401040B
:104E300000880000000000700088010401041108CF
:104E40001FFC0004000000F8014401440144014437
:104E500000C800000000010401040FFC110411044B
:104E600011001800000000D601290129012901C9FB
:104E70000106000010041FFC008401000100010471
:104E800000FC000400000104190419FC00040004E3
:104E9000000000000000000300010101190119FEDB
:104EA0000000000010041FFC0024004001B4010CAD
:104EB000010400000000100410041FFC00040004A2
:104EC00000000000010401FC0104010001FC0104D8
:104ED000010000FC010401FC008401000100010448
:104EE00000FC0004000000F80104010401040104B6
:104EF00000F80000010101FF0085010401040088A1
:104F00000070000000000070008801040104010529
:104F100001FF00010104010401FC008401040100FF
:104F200001800000000000CC0124012401240124A0
:104F30000198000000000100010007F801040104CD
:104F400000000000010001F8000400040004010852
:104F500001FC0004010001800170000C00100160E0
:104F60000180010001F0010C003001C00030010C93
:104F700001F0010000000104018C00740170018C3B
:104F800001040000010101810171000E001801609F
:104F90000180010000000184010C013401440184FE
:104FA000010C0000000000000000000001003EFCB9
:104FB000400240020000000000000000FFFF00006F
:104FC000000000000000400240023EFC0100000022
:104FD00000000000000060008000800040004000F1
:104FE00020002000303132333435363738394142F1
:104FF000434445464030580030313233343536373B
:105000003839616263646566403078002C5000086E
:10501000000000203C0000006C01000868500008FF
:105020003C000020AC0600008801000800A24A04F1
:105030000000000000000000010203040607080948
:105040000000FFFF00000000000000000000000062
:10505000000000000000000001020304010203043C
:08506000060708090204060816
:0400000508000131BD
:00000001FF
