:020000040800F2
:10000000900F0020A92100087D1700087F17000825
:1000100083170008871700088B17000800000000EE
:100020000000000000000000000000008F17000822
:1000300091170008000000009317000895170008AA
:10004000C3210008C3210008C3210008C321000800
:10005000C3210008C3210008051A0008C3210008B5
:10006000C3210008C3210008C3210008C3210008E0
:10007000C3210008C3210008C3210008C3210008D0
:10008000C3210008C3210008C3210008C3210008C0
:10009000C3210008C3210008C3210008C3210008B0
:1000A000C3210008C3210008C3210008C3210008A0
:1000B000C3210008C3210008C3210008C321000890
:1000C000C3210008C3210008C3210008C321000880
:1000D000C32100082B210008C3210008C321000808
:1000E000511B0008C3210008C3210008C3210008D8
:1000F000C3210008C3210008C3210008C321000850
:10010000C3210008C3210008C3210008C32100083F
:10011000C3210008C3210008C3210008C32100082F
:10012000C3210008C3210008C3210008C32100081F
:1001300000F002F800F03AF80AA090E8000C8244BF
:100140008344AAF10107DA4501D100F02FF8AFF29C
:10015000090EBAE80F0013F0010F18BFFB1A43F0A5
:100160000103184794330000B4330000103A24BF51
:1001700078C878C1FAD8520724BF30C830C144BF0C
:1001800004680C607047000000230024002500264E
:10019000103A28BF78C1FBD8520728BF30C148BFEA
:1001A0000B6070471FB51FBD10B510BD03F075F98A
:1001B0001146FFF7F7FF00F009F803F093F903B4D5
:1001C000FFF7F2FF03BC01F029FF000001F0B8FEC9
:1001D00001F01EFF4FF4E13001F033FF01F0C0FBEE
:1001E00001F080FC01F022FC01F056FCAA20EE494F
:1001F00008705520487001F0B6BAEC480078EC4918
:10020000097888427ED0EB48E9490978405CEA49A0
:100210000870E7480078401CE549087008460078F7
:10022000802801DB00200870E448007808286AD2A2
:10023000DFE800F0041E384769FEFDFCDE48007868
:1002400055280DD10120DD490870DD480078DA49D4
:1002500009784840DA4908705520DA49087006E004
:100260000020D9490870D5490870D54908707DE14A
:10027000D1480078AA280DD10220D0490870D04872
:100280000078CD4909784840CD490870AA20CD4969
:10029000487006E00020CC490870C8490870C84979
:1002A000087063E1C4480078C64988700320C349D8
:1002B0000870C3480078C04909784840C0490870B0
:1002C00054E1BD480078BF49C870BD480078BA49BC
:1002D00009784840BA490870BA48C0780B2846D017
:1002E000B848C078112842D0B648C07812283ED00D
:1002F000B448C07813283AD0B248C078142836D011
:10030000B04801E033E129E1C07815282FD0AD488D
:10031000C07816282BD0AB48C078172827D0A9481A
:10032000C078182823D0A748C07819281FD0A5481E
:10033000C0781A281BD0A348C078222817D0A1481B
:10034000C078312813D09F48C07832280FD09D48FC
:10035000C07833280BD09B48C078342807D0994800
:10036000C078482803D09748C078492806D106208D
:10037000924908700020954908708CE09148C07837
:10038000432803D08F48C0780A2806D105208B491E
:10039000087001208D4908707DE08A48C0780328E4
:1003A00027D08848C078052823D08648C0780628FA
:1003B0001FD08448C07807281BD08248C0780828FE
:1003C00017D08048C078092813D07E48C0780A2802
:1003D0000FD07C48C07824280BD07A48C0784228B7
:1003E00007D07848C078472803D07648C07861287D
:1003F00006D10520714908700220744908704AE04E
:100400007048C07804280BD06E48C078442807D0C4
:100410006C48C078452803D06A48C07860280AD163
:100420000520664908700420684902E079E05CE034
:1004300032E008702FE06348C078462806D10520D6
:100440005E49087006206149087024E05D48C07864
:10045000232806D10520594908700A205B490870F5
:1004600019E05848C078012807D05648C0780228BB
:1004700003D05448C078212806D105204F49087080
:1004800010205249087006E000204F4908704B497F
:1004900008704B49087069E04D4800784B4909786D
:1004A000884210DA05204549087043480178454ADA
:1004B00047480078001D1154414800783E490978AA
:1004C00048403F49087042480078401C4049087045
:1004D000084600783D490978884205D100203C490A
:1004E000087006203549087040E0354800783249E8
:1004F000097888420DD130480178324A3348007873
:10050000001D115407202D49087000202C49087047
:1005100006E000202C490870284908702849087016
:1005200024E025480078772810D123480178254A0F
:1005300026480078401D11540020204908700120F1
:100540002149087000201E49087006E000201E495D
:1005500008701A4908701A49087007E00020174906
:100560000870174908701849087000BF00BF164886
:100570000078012841F08A80002013490870002586
:1005800010488078084988700E4890F80380084623
:1005900080F80380B8F1190F7ED036DCB8F1190F5E
:1005A00081F0728016E000009208002039000020DF
:1005B00038000020B00800200000002001000020CA
:1005C000030000205400002002000020060000204C
:1005D00007000020DFE818F058086300AD00EE00C7
:1005E0002E016E01AE01EE012E027602B602F60277
:1005F000580858085808580858080F03320355037C
:1006000078039B03BE03E1030404B8F1420F70D0EA
:100610001EDCB8F1240F6DD00DDCB8F11A0F6AD0D2
:10062000B8F1210F68D0B8F1220F7DD0B8F1230FB7
:1006300041F02A80F7E3B8F1310F76D0B8F1320FEC
:1006400074D0B8F1330F72D0B8F1340FF0D1EBE3BE
:10065000B8F1470F00F0E6860EDCB8F1430F67D023
:10066000B8F1440F7CD0B8F1450F00F0DC85B8F14B
:10067000460FDDD100F061BEB8F1480F00F03C87B5
:10068000B8F1490F00F08B87B8F1600F00F0A18737
:10069000B8F1610FCCD100E0C7E300F0C9BF00247E
:1006A00006E0201DF849085CF8490855601C84B232
:1006B000102CF6DB1022F549002001F081FB1022FE
:1006C000F349002001F09EFB002409E0F048015DA1
:1006D000201DED4A105C814200D003E0601C84B212
:1006E000102CF3DB00BF102C07DA0020E949087159
:1006F00006E0FDE3FDE3BBE3E6E30120E549087125
:10070000002404E0E348005D4540601C84B2052CF1
:10071000F8DBE0484571EE20DE4988710721DD48AD
:1007200001F0ECFC00F0B1BFF0E3F0E3F0E3F0E344
:10073000F0E3002406E0201DD349085CD3490855A6
:10074000601C84B2102CF6DB1022D049104601F058
:1007500037FB1022CE49104601F054FB00240AE07A
:10076000FAE3CB48015D201DC74A105C814200D0EE
:1007700003E0601C84B2102CF3DB00BF102C03DA02
:100780000020C449087102E00120C2490871002418
:1007900004E0C048005D4540601C84B2052CF8DBD5
:1007A000BC484571EE20BB4988710721B94801F06A
:1007B000A5FCB7E7002406E0201DB349085CB34957
:1007C0000855601C84B2022CF6DB0222AF492020BF
:1007D00001F0F6FA0222AE49202001F013FB0024BA
:1007E00009E0AB48015D201DA74A105C814200D0A2
:1007F00003E0601C84B2022CF3DB00BF022C03DA9E
:100800000020A449087102E00120A24908710024D7
:1008100004E0A048005D4540601C84B2052CF8DB74
:100820009C484571EE209B4988710721994801F049
:1008300065FC77E7002406E0201D9349085C934996
:100840000855601C84B2042CF6DB04228F49222058
:1008500001F0B6FA04228E49222001F0D3FA0024D6
:1008600009E08B48015D201D874A105C814200D061
:1008700003E0601C84B2042CF3DB00BF042C03DA19
:1008800000208449087102E0012082490871002497
:1008900004E08048005D4540601C84B2052CF8DB14
:1008A0007C484571EE207B4988710721794801F029
:1008B00025FC37E7002406E0201D7349085C7349D6
:1008C0000855601C84B2022CF6DB02226F492620F8
:1008D00001F076FA02226E49262001F093FA0024F4
:1008E00009E06B48015D201D674A105C814200D021
:1008F00003E0601C84B2022CF3DB00BF022C03DA9D
:1009000000206449087102E0012062490871002456
:1009100004E06048005D4540601C84B2052CF8DBB3
:100920005C484571EE205B4988710721594801F008
:10093000E5FBF7E6002406E0201D5349085C534917
:100940000855601C84B2022CF6DB02224F49282095
:1009500001F036FA02224E49282001F053FA002411
:1009600009E04B48015D201D474A105C814200D0E0
:1009700003E0601C84B2022CF3DB00BF022C03DA1C
:1009800000204449087102E0012042490871002416
:1009900004E04048005D4540601C84B2052CF8DB53
:1009A0003C484571EE203B4988710721394801F0E8
:1009B000A5FBB7E6002406E0201D3349085C334957
:1009C0000855601C84B2022CF6DB02222F492A2033
:1009D00001F0F6F902222E492A2001F013FA002430
:1009E00009E02B48015D201D274A105C814200D0A0
:1009F00003E0601C84B2022CF3DB00BF022C03DA9C
:100A000000202449087102E00120224908710024D5
:100A100004E02048005D4540601C84B2052CF8DBF2
:100A20001C484571EE201B4988710721194801F0C7
:100A300065FB77E6002406E0201D1349085C134996
:100A40000855601C84B2022CF6DB02220F492C20D0
:100A500001F0B6F902220E492C2001F0D3F900244E
:100A600009E00B48015D201D074A105C814200D05F
:100A700003E0601C84B2022CF3DB00BF022C0BDA13
:100A80000020044908710AE0540000208200002080
:100A900072000020920800200120F949087100240A
:100AA00004E0F748005D4540601C84B2052CF8DB8B
:100AB000F3484571EE20F24988710721F04801F0B2
:100AC0001DFB2FE6002406E0201DEE49085CEE49E0
:100AD0000855601C84B2022CF6DB0222EA492E2063
:100AE00001F06EF90222E9492E2001F08BF9002471
:100AF00009E0E648015D201DE24A105C814200D019
:100B000003E0601C84B2022CF3DB00BF022C03DA8A
:100B10000020DB49087102E00120D9490871002456
:100B200004E0D748005D4540601C84B2052CF8DB2A
:100B3000D3484571EE20D24988710721D04801F091
:100B4000DDFAEFE5002406E0201DCE49085CCE4921
:100B50000855601C84B2012CF6DB0122CA49302002
:100B600001F02EF90122C949302001F04BF900248F
:100B700009E0C648015D201DC24A105C814200D0D8
:100B800003E0601C84B2012CF3DB00BF012C03DA0C
:100B90000020BB49087102E00120B9490871002416
:100BA00004E0B748005D4540601C84B2052CF8DBCA
:100BB000B3484571EE20B24988710721B04801F071
:100BC0009DFAAFE50621002001F097F9AC490871C4
:100BD000002404E0AA48005D4540601C84B2052C56
:100BE000F8DBA7484571EE20A54988710721A44884
:100BF00001F084FA96E51022A449002001F002F9E0
:100C0000002406E0A148015D201D9D4A1154601C8E
:100C100084B2102CF6DB002404E09948005D4540C6
:100C2000601C84B2142CF8DB95480575EE209449BD
:100C300048751621924801F061FA73E51022934934
:100C4000104601F0DFF8002406E09048015D201D09
:100C50008B4A1154601C84B2102CF6DB002404E093
:100C60008748005D4540601C84B2142CF8DB844842
:100C70000575EE20824948751621814801F03EFA3B
:100C800050E502228149202001F0BCF8002406E052
:100C90007E48015D201D7A4A1154601C84B2022CEA
:100CA000F6DB002404E07648005D4540601C84B219
:100CB000062CF8DB72488571EE207149C871082155
:100CC0006F4801F01BFA2DE504227049222001F043
:100CD00099F8002406E06D48015D201D684A115412
:100CE000601C84B2042CF6DB002404E06448005D40
:100CF0004540601C84B2082CF8DB61480572EE2088
:100D00005F4948720A215E4801F0F8F90AE50222BB
:100D10005E49262001F076F8002406E05B48015D7C
:100D2000201D574A1154601C84B2022CF6DB0024AB
:100D300004E05348005D4540601C84B2062CF8DB9B
:100D40004F488571EE204E49C87108214C4801F08A
:100D5000D5F9E7E402224D49282001F053F8002498
:100D600006E04A48015D201D454A1154601C84B2CA
:100D7000022CF6DB002404E04148005D4540601C85
:100D800084B2062CF8DB3E488571EE203C49C871E0
:100D900008213B4801F0B2F9C4E402223B492A2071
:100DA00001F030F8002406E03848015D201D344A87
:100DB0001154601C84B2022CF6DB002404E030489D
:100DC000005D4540601C84B2062CF8DB2C48857120
:100DD000EE202B49C8710821294801F08FF9A1E4C0
:100DE00002222A492C2001F00DF8002406E02748B1
:100DF000015D201D224A1154601C84B2022CF6DBD6
:100E0000002404E01E48005D4540601C84B2062CAE
:100E1000F8DB1B488571EE201949C8710821184874
:100E200001F06CF97EE4BBE056E1022217492E2066
:100E300000F0E8FF002406E01448015D201D104A80
:100E40001154601C84B2022CF6DB002404E00C4830
:100E5000005D4540601C84B2062CF8DB08488571B3
:100E6000EE200749C8710821054801F047F959E407
:100E700001220649302000F0C5FF00240FE00000E9
:100E80009208002054000020820000207200002000
:100E9000FE48015D201DFE4A1154601C84B2012CE5
:100EA000F6DB002404E0FA48005D4540601C84B293
:100EB000052CF8DBF6484571EE20F54988710721CD
:100EC000F34801F01BF9E0E3002406E0201DF1499E
:100ED000085CF1490855601C84B2102CF6DB102226
:100EE000ED49322000F06CFF1022E849322001E089
:100EF00017E1A4E000F086FF00240EE0E348015D66
:100F0000201DE44A105C814205D008E025E0CAE0DB
:100F1000CAE0CAE006E1601C84B2102CEEDB00BF20
:100F2000102C03DA0020DA49087102E00120D849C8
:100F30000871002404E0D648005D4540601C84B27E
:100F4000052CF8DBD2484571EE20D1498871072184
:100F5000CF4801F0D3F898E311E11022CB493220B9
:100F600000F050FF002406E0C848015D201DC84A7B
:100F70001154601C84B2102CF6DB002404E0C44839
:100F8000005D4540601C84B2142CF8DBC048057538
:100F9000EE20BF4948751621BD4801F0AFF874E353
:100FA000BC480179407961F31F20BC4908800024C6
:100FB00006E0A01DB749085CB7490855601C84B21B
:100FC000082CF6DBB5490988422202EBC100082251
:100FD000B14900F0F5FEB1490988422202EBC10097
:100FE0000822AA4900F00EFF002409E0A748015D8D
:100FF000A01DA84A105C814200D003E0601C84B2AE
:10100000082CF3DB00BF082C03DA0020A04908718C
:1010100002E001209E490871002404E09C48005D24
:101020004540601C84B2052CF8DB99484571EE20E0
:10103000974988710721964801F060F825E39548A3
:101040000079934908719348407948719148017932
:10105000407961F31F20914908800988422202EB00
:10106000C1000822894900F0CDFE002406E087482F
:10107000015DA01D864A1154601C84B2082CF6DB69
:10108000002404E08248005D4540601C84B20E2CC0
:10109000F8DB7F488573EE207D49C87310217C48BA
:1010A00001F02CF8F1E2F0E2EFE27D4800787849B7
:1010B0000871002404E07648005D4540601C84B25D
:1010C000052CF8DB72484571EE20714988710721C3
:1010D0006F4801F013F8D8E20320724908800846EF
:1010E000008800F006FE7049088008460088C0F3BA
:1010F0000320674908716C4800784871002404E0B7
:101100006348005D4540601C84B2062CF8DB6048F3
:101110008571EE205E49C87108215D4800F0EEFF40
:10112000B3E2B2E25B480079012803D05948007964
:1011300002280ED1574800795949087008460078AE
:10114000022802D100205949087001205049087135
:1011500002E000204E490871002404E04C48005D84
:101160004540601C84B2052CF8DB49484571EE20EF
:10117000474988710721464800F0C0FF85E20320F7
:1011800048490880434800794FF47F4101EA002034
:10119000404949790843464908804248008800F0A0
:1011A000A8FD414908800846008800F47040404985
:1011B0000988C1F30B0108433B49088008460188B0
:1011C0003848008800F031FD3648008800F091FD75
:1011D000354908802F48007900F00F000988C1F3D5
:1011E0000321884209D1304800782A494979884248
:1011F00003D101202649087102E00020244908712A
:10120000002404E02248005D4540601C84B2052CA7
:10121000F8DB1F484571EE201D49887107211C48E5
:1012200000F06CFF31E24FF400601E49088019485D
:1012300000794FF47F4101EA0020164949790843BB
:101240001C490880134880794FF47F4101EA00204F
:101250001049C979084314490880002456E011490F
:101260000988022202FB0411491C88B2114909882D
:1012700000F0DBFC0B490988022202FB0411491C27
:1012800088B200F036FD07460A4815E072000020DB
:10129000920800205400002082000020120000204C
:1012A0000A0000200C0000200E0000200B0000208F
:1012B00018000020100000200088874203D1012080
:1012C000F749087102E00020F5490871F5490988DD
:1012D000022202FB041188B2F349098800F0A5FC40
:1012E000F0490988022202FB041188B200F001FDD6
:1012F0000746ED480088874203D10120E84908717C
:1013000002E00020E6490871601C84B2E7480088CA
:101310008442A4DB002404E0E148005D4540601CF9
:1013200084B2052CF8DBDE484571EE20DC4988717B
:101330000721DB4800F0E2FEA7E1DD4800794FF429
:101340007F4101EA0020DA4949790843D5490880FC
:10135000D74880794FF47F4101EA0020D449C97908
:101360000843D4490880D248007A4FF47F4101EA0B
:101370000020CF49497A0843CB49088008460188B4
:10138000CC480088000461F30F00CB49096888420B
:1013900008D9C5480188C7480088000461F30F00D8
:1013A000C5490860BF490988491C88B2C1490988F4
:1013B00000F03BFCBC480188BA48008800F035FCCE
:1013C000B8490988491C88B200F093FC0746B9481F
:1013D0000088874210D1B348008800F08AFC074695
:1013E000B1480088874203D10120AD49087106E069
:1013F0000020AB49087102E00020A94908710024CF
:1014000004E0A748005D4540601C84B2052CF8DB71
:10141000A3484571EE20A24988710721A04800F039
:101420006DFE32E1A24800794FF47F4101EA0020CD
:101430009F49497940EA0104A4F57F40FF3825D04F
:1014400000209E4908709A4800799549087198488B
:10145000407948719A4830F81400000A8871984819
:1014600010F81400C871002404E08D48005D454068
:10147000601C84B2082CF8DB89480572EE2088498C
:1014800048720A21864800F039FE34E08D48007821
:1014900002282AD1002089490870002420E0200A6F
:1014A0007F4908714C71864830F81400000A887131
:1014B000834810F81400C871002604E07848805D65
:1014C0004540701C86B2082EF8DB75480572EE2088
:1014D000734948720A21724800F010FE601C84B201
:1014E000724800888442DADB05E0764800780128FB
:1014F00001D172490870C8E048F6A0446E480068FF
:10150000000C6C4908806C480088674908800846D0
:101510000188042000F089FB66480188052000F05E
:1015200084FB0121032000F080FB00BF092000F0B4
:10153000E0FBC0F3003018B9601E80B20400F5D1A2
:101540001CB900205649087116E0082000F0D1FBB4
:1015500055490880002408E04FF4805000F0C9FB92
:10156000574921F81400601C84B24F480088844217
:10157000F2DB01204A490871002404E04848005D7C
:101580004540601C84B2052CF8DB45484571EE20CF
:10159000434988710721424800F0B0FD75E0002101
:1015A000032000F042FB01203D490871002404E0C3
:1015B0003B48005D4540601C84B2052CF8DB384890
:1015C0004571EE20364988710721354800F096FDB7
:1015D0005BE0374800794FF47F4101EA002034494D
:1015E000497908432F490880314880794FF47F4179
:1015F00001EA00202E49C97908432B490880084692
:1016000001882848008800F010FB002404E02448EA
:10161000005D4540601C84B2042CF8DB2048057155
:10162000EE201F49487106211D4800F067FD2CE09F
:101630001F4800794FF47F4101EA00201C49497995
:101640000843184908800846008800F052FB1649F4
:10165000088008460088000A11490871124800787D
:101660004871002404E00E48005D4540601C84B2CF
:10167000062CF8DB0A488571EE200949C87108215B
:10168000074800F03BFD00E000BF00BF0D480078B8
:10169000012868D109480078012864D1002434E089
:1016A000920800200C0000200E00002008000020FE
:1016B0005400002010000020140000200B00002027
:1016C000920000200A000020200A284908714C716D
:1016D000274830F81400000A8871254810F81400D3
:1016E000C871002604E02148805D4540701C86B228
:1016F000082EF8DB1D480572EE201C4948720A21AD
:101700001A4800F0FBFC601C84B21A48008884422E
:10171000DADB48F6A0440121032000F086FA00BF7E
:10172000092000F0E6FAC0F3003018B9601E80B25C
:101730000400F5D11CB900200C49087113E0082001
:1017400000F0D7FA0C490880002408E04FF48050DC
:1017500000F0CFFA064921F81400601C84B2064854
:1017600000888442F2DBFEF748BD000092080020AA
:1017700092000020080000200E000020704700BFEB
:10178000FEE700BFFEE700BFFEE700BFFEE77047D1
:10179000704770477047000000210020674A1268B8
:1017A00042F48032654B1A6000BF644A126802F44A
:1017B0000030491C10B9B1F5A06FF6D15F4A12682C
:1017C00012F4003F01D0012000E00020012842D1A6
:1017D0005B4A126842F01002594B1A601A461268AE
:1017E00022F003021A601A46126842F002021A60DE
:1017F000524A5268514B5A601A4652685A601A4609
:10180000526842F480625A601A46526822F47C128E
:101810005A601A46526842F4E8125A601A46126830
:1018200042F080721A6000BF444A126812F0007FD2
:10183000FAD0424A526822F00302404B5A601A46DC
:10184000526842F002025A6000BF3C4A526802F0FD
:101850000C02082AF9D1704710B5FFF79DFF10BDA3
:1018600010B53648006840F0010034490860084669
:1018700040683449084031494860084600683249A8
:1018800008402E4908600846006820F4802008605F
:101890000846406820F4FE0048604FF41F0088604E
:1018A000FFF7DAFF4FF000602849086010BD10B55F
:1018B000002100200022214B5B6803F00C0121B1C4
:1018C000042906D0082928D107E0214B214C2360A8
:1018D00027E01F4B1F4C236023E0184B5B6803F489
:1018E0007010164B5B6803F48032022303EB9040C8
:1018F00022B9194B4343174C23600DE00F4B5B6833
:1019000013F4003F04D0144B4343124C236003E014
:101910000F4B43430F4C236003E00D4B0D4C2360F2
:1019200000BF00BF054B5B68C3F303130B4CE15CC6
:10193000084B1B68CB40074C236010BD00100240D1
:10194000002002400000FFF8FFFFF6FE08ED00E077
:1019500000127A001C00002000093D002000002039
:1019600008B50121082000F0BFFFC020ADF800003D
:1019700010208DF8030003208DF802006946064808
:1019800000F000FD4021044800F0A7FD802102483E
:1019900000F0A3FD08BD0000000C01401FB50121AF
:1019A000042000F0A1FF0120ADF80C0048208DF8C4
:1019B0000F0003A9FC4800F0E5FC4FF4E06000F0E4
:1019C00013FC06208DF8080000208DF809008DF822
:1019D0000A0001208DF80B0002A800F00AFC00218B
:1019E000084600F0E3FD0120009000208DF804007F
:1019F0000C208DF8050001208DF80600684601F0E6
:101A0000C7FC1FBD10B5012001F028FD68B1E748F3
:101A100000686FEA0000E649C1F898014FF05500F0
:101A200000F05EFB012001F02AFD10BD1CB5012174
:101A30000C2000F059FF4FF41060ADF804001020A6
:101A40008DF8070003208DF8060001A9D64800F0A4
:101A500099FC4FF48071D44800F03FFD4FF40061D1
:101A6000D14800F03AFD4FF44070ADF8000010206E
:101A70008DF8030003208DF802006946CD4800F080
:101A800081FC4FF48071CB4800F027FD4FF40071CA
:101A9000C84800F024FD1CBD08B50121102000F04D
:101AA00023FF4FF40050ADF8000010208DF8030024
:101AB00003208DF802006946BF4800F063FC4FF434
:101AC0000051BD4800F009FD4FF40051BA4800F044
:101AD00006FD322000F04DFA4FF40051B64800F0F8
:101AE000FCFC08BD1FB50121052000F0FDFE4FF4F0
:101AF0008050ADF80C0048208DF80F0003A9AA48CB
:101B000000F040FC4FF4E06000F06EFB28208DF800
:101B1000080000208DF809008DF80A0001208DF8DA
:101B20000B0002A800F065FB0C21002000F03EFD38
:101B30004FF48050009000208DF804000C208DF8A8
:101B4000050001208DF80600684601F021FC1FBD4C
:101B500010B54FF4805001F081FC28B10120974965
:101B60000870000301F08BFC10BD10B504462CB1C9
:101B70004FF400618C4800F0B0FC04E04FF40061C9
:101B8000894800F0ACFC10BD10B504462CB14FF4F0
:101B90000071884800F0A1FC04E04FF40071854812
:101BA00000F09DFC10BD10B504462CB14FF48071BF
:101BB000804800F092FC04E04FF480717D4800F012
:101BC0008EFC10BD10B504462CB14FF480717648E0
:101BD00000F083FC04E04FF48071734800F07FFC58
:101BE00010BD1CB50446FF20ADF8040003208DF89D
:101BF00006004FF60340ADF8000003208DF8020008
:101C00002CB128208DF807008DF8030004E0102087
:101C10008DF807008DF8030001A9634800F0B2FBBE
:101C20006946644800F0AEFB1CBD2DE9F041044656
:101C30000D46E7B204F47C40C4F3012140EA0108F8
:101C40000020FFF7A1FF0020FFF78FFF0120FFF723
:101C5000AAFF0020FFF7C5FF534800F03AFC20F030
:101C6000FF0646EA0701504800F040FC514800F0EA
:101C700030FC4FF6034120EA010646EA08014D48D0
:101C800000F034FC0120FFF77FFF012000F071F924
:101C90000020FFF779FF012000F06BF9EFB205F4A7
:101CA0007C40C5F3012140EA01083F4800F011FCE7
:101CB00020F0FF0646EA07013B4800F017FC3D48CC
:101CC00000F007FC4FF6034120EA010646EA08014E
:101CD000384800F00BFC0020FFF765FF012000F002
:101CE00048F90120FFF75FFF0120FFF73EFFBDE845
:101CF000F0812DE9F0410546EFB205F47C40C5F3D3
:101D0000012140EA01080020FFF73EFF0020FFF715
:101D10002CFF0120FFF756FF0020FFF762FF22484B
:101D200000F0D7FB20F0FF0444EA07011E4800F052
:101D3000DDFB204800F0CDFB4FF6034120EA010413
:101D400044EA08011B4800F0D1FB0120FFF71CFF0B
:101D5000012000F00EF90020FFF716FF012000F02F
:101D600008F90120FFF73DFF0020FFF72BFF0120BE
:101D700000F0FFF80C4800F09FFB0446E6B20D4867
:101D800000F09AFB044604F47C4004F0030140EAAE
:101D9000012006430120FFF715FF0120FFF7E5FEB4
:101DA0003046BDE8F08100000008014098812142E2
:101DB00000802142000C0140001001403000002052
:101DC0002DE9F04104460D4616464FF00408002761
:101DD00001F01BF8342001F0AAFA09E02988574ADB
:101DE000A01801F051F98046B81C87B2A41CAD1CA4
:101DF000B74202DAB8F1040FF0D001F013F8304620
:101E0000BDE8F08110B5034600204C4C234403E0AC
:101E100013F8014B0C54401C9042F9DB10BD2DE926
:101E2000F04FADF6040D074689469046464600251C
:101E30000420CDF8000800F0E8FF4FEAD72B4FEA66
:101E4000CB2BC7F30A0ACAF50064A64200D8B4B285
:101E50004DE04FF4006269465846FFF7D3FF002576
:101E600008E00AEB05001DF80000FF2800D003E0A1
:101E7000681C85B2A542F4DB00BFA54221DA5846B2
:101E800001F002F8CDF80008DDF80008042805D0BC
:101E90004FF0FF300DF6040DBDE8F08F002507E090
:101EA00019F8050005EB0A010DF80100681C85B260
:101EB000A542F5DB4FF4006269465846FFF780FF04
:101EC00004E0224649463846FFF77AFFA64200D191
:101ED0000EE00BF5006B4FF0000AA1442744361BBF
:101EE000B6F5006F02D94FF4006400E0B4B2B0E779
:101EF00000BF00F097FF4046CCE72DE9F0410546D2
:101F00000E4604270D4805EB000800F07EFF002474
:101F10000CE008EBC42000F0B7FF0746042F04D004
:101F200000F080FF0020BDE8F081641CB442F0DBCB
:101F300000BF00F077FF0120F5E7000000D00008A7
:101F400010B56FF0040000F09FF92D4800682D498E
:101F5000B0FBF1F02C4908700846007800EB400116
:101F6000C1EBC0104FF6FF7101EAC000274908809D
:101F700010BD0146244A12784A434FF0E0235A61CB
:101F800000229A611A46126942F001021A6100BFEA
:101F90004FF0E022106910F0010F02D010F4803FE2
:101FA000F6D04FF0E022126922F001024FF0E02358
:101FB0001A6100229A6170470146144A12884A4306
:101FC0004FF0E0235A6100229A611A46126942F0EA
:101FD00001021A6100BF4FF0E022106910F0010FFA
:101FE00002D010F4803FF6D04FF0E022126922F0C8
:101FF00001024FF0E0231A6100229A61704700004D
:102000001C00002000127A00320000203400002062
:1020100010B54FF4A06000F0E7F810BD014600BF16
:10202000704770B504460D4600BF40215A4800F085
:102030006DFE0028F9D0E1B2574800F0F9FD2046C6
:1020400070BD10B586B00446012144F2040000F0D2
:102050004BFC514800F0B0FC4FF40070ADF8140098
:1020600003208DF8160018208DF8170005A94B489D
:1020700000F088F94FF48060ADF8140004208DF86A
:10208000170005A9454800F07DF901940020ADF83E
:102090000800ADF80A00ADF80C00ADF810000C20F7
:1020A000ADF80E0001A93C4800F0C9FC25208DF8D0
:1020B000000003208DF801008DF8020001208DF84A
:1020C0000300684600F095F8012240F2255132489D
:1020D00000F04DFD0121304800F03DFD06B010BD7F
:1020E00010B5044621462C4800F0A2FD00BF402157
:1020F000294800F00BFE0028F9D010BD70B5054648
:102100000E46002403E0285DFFF7EAFF641CB4429A
:10211000F9DB70BD00BF2048008810F0200FFAD016
:102120001D48001D0088C0B2704710B500241A4831
:102130000088C4B214F0200F09D114F0080F06D0A3
:1021400015480088C4B21448001D0088C4B2124863
:102150000C300088C4B2104810300088C4B20E4859
:1021600014300088C4B240F225510B4800F0E4FD61
:1021700080B1FFF7CFFF0A490A4A1278885409480C
:102180000078401C0749087008460078802801DB69
:102190000020087010BD0000003801400008014018
:1021A000B00800203900002009488047094800474E
:1021B000FEE7FEE7FEE7FEE7FEE7FEE7FEE7FEE7F7
:1021C000FEE7FEE704480549054A064B7047000054
:1021D000611800083101000890090020900F0020CC
:1021E000900B0020900B002031490143314A1160CF
:1021F000704770B5002100230F22C4780CB32D4C1A
:10220000246804F4E064C4F5E064210AC1F1040325
:10221000CA40447804FA03F1847814402143090148
:10222000254C0678A155047804F01F050124AC4024
:1022300005786D114FF0E02606EB8505C5F80041E5
:1022400009E0047804F01F050124AC401B4D06781A
:10225000761145F8264070BD194A0A400243154BD5
:102260001B1F1A60704739B1124A121D12680243CF
:10227000104B1B1D1A6006E00E4A121D12688243A5
:102280000C4B1B1D1A607047042808D14FF0E02149
:10229000096941F004014FF0E022116107E04FF0BD
:1022A000E021096921F004014FF0E022116170473B
:1022B0000000FA050CED00E000E400E080E100E041
:1022C00080FFFF1F10B50446CA48844208D101218F
:1022D000042000F023FB0021042000F01FFB46E057
:1022E000C548844208D10121082000F017FB0021D5
:1022F000082000F013FB3AE0C048844208D10121D5
:10230000102000F00BFB0021102000F007FB2EE056
:10231000BB48844208D10121202000F0FFFA0021AF
:10232000202000F0FBFA22E0B648844208D10121C7
:10233000402000F0F3FA0021402000F0EFFA16E010
:10234000B148844208D10121802000F0E7FA002141
:10235000802000F0E3FA0AE0AC48844207D1012172
:10236000801500F0DBFA0021A01500F0D7FA10BDAF
:1023700010B50121084600F0D1FA0021012000F03B
:10238000CDFA10BD2DE9F0410246002500260020BF
:1023900000230024002791F803C00CF00F0591F8EA
:1023A00003C01CF0100F03D091F802C04CEA0505E1
:1023B00091F800C0BCF1000F31D0146800202BE070
:1023C0004FF0010C0CFA00F3B1F800C00CEA030660
:1023D0009E4220D183004FF00F0C0CFA03F7BC4350
:1023E00005FA03FC4CEA040491F803C0BCF1280F81
:1023F00006D14FF0010C0CFA00FCC2F814C00AE040
:1024000091F803C0BCF1480F05D14FF0010C0CFA54
:1024100000FCC2F810C0401C0828D1D31460B1F8E9
:1024200000C0BCF1FF0F34DD546800202EE000F145
:10243000080C4FF0010808FA0CF3B1F800C00CEAE0
:1024400003069E4221D183004FF00F0C0CFA03F7D4
:10245000BC4305FA03FC4CEA040491F803C0BCF148
:10246000280F05D100F1080C08FA0CF8C2F8148006
:1024700091F803C0BCF1480F07D100F1080C4FF0F0
:10248000010808FA0CF8C2F81080401C0828CED3C6
:102490005460BDE8F0814FF6FF7101800221817028
:1024A0000421C17070470246002093680B4201D09E
:1024B000012000E0002070470146886880B2704724
:1024C00002460020D3680B4201D0012000E000202A
:1024D00070470146C86880B270470161704741612A
:1024E00070470AB1016100E041617047C160704707
:1024F0004FF480320A43826181618261826982691C
:10250000704702460020424B18684FF6807318400F
:1025100040EA021008433E4B186070473D49C861CD
:102520007047F0B50A46002300240021002500F082
:102530000046B6F1004F02D1354EF16901E0344E4C
:102540007168C0F3034583B200F44016B6F5401F2E
:1025500008D121F070612E4E766826F070662C4FFF
:102560007E6012E000F48016B6F5801F06D10326C7
:1025700006FA05F4A14341F0706106E0460D36010C
:1025800003FA06F6B14341F0706122B1460D3601FF
:1025900003FA06F6314300F00046B6F1004F02D1CF
:1025A0001B4EF16101E01A4E7160F0BD30B50022A2
:1025B0008B071C0F0F2303FA04F2154B08338C1002
:1025C00053F824309343124C08348D1044F82530CE
:1025D00023468C1053F824308C07240F00FA04F49F
:1025E00023430B4C08348D1044F8253030BD0A4984
:1025F0000860704700080140000C014000100140D5
:102600000014014000180140001C0140002001405E
:102610000000014000002042DC002042DB4800684E
:1026200040F00100D949086008464068D849084090
:10263000D649486008460068D6490840D349086032
:102640000846006820F4802008600846406820F4AE
:10265000FE0048604FF41F0088607047CB4909684E
:1026600021F48031C94A11601146096821F48021A2
:102670001160B0F5803F03D0B0F5802F0ED106E099
:10268000C249096841F48031C04A116007E0BF497E
:10269000096841F4A021BD4A116000E000BF00BFFD
:1026A000704710B501460022002300204A11012A7C
:1026B00002D1B64C236806E0022A02D1B34C236A49
:1026C00001E0B24C636A01F01F02012494401C42F5
:1026D00001D0012000E0002010BD70B500240025CD
:1026E000002600BF3120FFF7DCFF0646641CB4F56E
:1026F000A06F01D0002EF5D03120FFF7D2FF08B136
:10270000012500E00025284670BD014600209F4AB3
:10271000106820F0F80040EAC100106070479E4940
:102720000860704702460020984B586820F47C10DF
:1027300042EA01031843954B586070479649086672
:10274000704701460020914A506820F0030008437A
:10275000506070478D48406800F00C00704701469B
:1027600000208A4A506820F0F0000843506070470B
:1027700001460020854A506820F4E060084350601C
:10278000704701460020814A506820F4605040EABA
:10279000C1005060704729B17C4A527A02437B4B9A
:1027A0005A7204E0794A527A8243784B5A727047DF
:1027B0007A490860704701460020744A506820F446
:1027C00040400843506070470021754A11706F4ABD
:1027D00082F82010012802D0042808D103E001214A
:1027E0006F4A117004E005216D4A117000E000BFCE
:1027F00000BF70476B49086070476449096A01432C
:10280000624A11627047674944390860704730B5C1
:1028100000210022002400235C4D6D6805F00C01AE
:1028200021B1042905D0082923D105E05E4D0560BA
:1028300022E05D4D05601FE0544D6D6805F4701297
:10284000524D6D6805F48034022505EB92421CB9A7
:10285000564D554305600BE04C4D6D6815F4003F37
:1028600003D0524D5543056002E04F4D554305607E
:1028700002E04D4D056000BF00BF444D6D6805F09E
:10288000F00109094A4D6B5C0568DD4045603F4D2C
:102890006D6805F4E061090A454D6B5C4568DD40F3
:1028A00085603A4D6D6805F46051C90A404D6B5C16
:1028B0004568DD40C560354D6D6805F44041890BC4
:1028C0003C4D6B5CC568B5FBF3F5056130BD29B1C6
:1028D0002E4A526902432D4B5A6104E02B4A526939
:1028E00082432A4B5A61704729B1284A92690243B0
:1028F000264B9A6104E0254A92698243234B9A61F0
:10290000704729B1214AD2690243204BDA6104E0C1
:102910001E4AD26982431D4BDA61704729B11B4AB6
:10292000D2680243194BDA6004E0184AD268824345
:10293000164BDA60704729B1144A12690243134BEF
:102940001A6104E0114A12698243104B1A61704700
:1029500014494039086070470F49C86470470B49F3
:10296000C87170470948406A40F080700749486262
:10297000704701460020054A92680A4201D00120B2
:1029800000E0002070470149887270470010024043
:102990000000FFF8FFFFF6FE00004242D80042426E
:1029A000201002408004424200127A0000093D00DB
:1029B000400000205000002010B50446FB4884422F
:1029C00009D101218803FFF7A9FF00214FF48040BE
:1029D000FFF7A4FF32E0F648844209D10121480400
:1029E000FFF7A9FF00214FF40030FFF7A4FF25E017
:1029F000F048844209D101218804FFF79CFF00219F
:102A00004FF48020FFF797FF18E0EB48844209D18C
:102A10000121C804FFF78FFF00214FF40020FFF7CA
:102A20008AFF0BE0E548844208D101210805FFF741
:102A300082FF00214FF48010FFF77DFF10BD2DE9CC
:102A4000F04786B005460E460024A24600BFA146C8
:102A50000027B08900B100BF2F462C8A4CF6FF70CA
:102A60000440F08804432C82AC894EF6F3100440F5
:102A7000B08831890843718908430443AC81AC8A2A
:102A80004FF6FF400440B0890443AC8201A8FFF731
:102A9000BEFEC648874202D1DDF810A001E0DDF895
:102AA0000CA0A88910F4004F08D00AEBCA0000EB74
:102AB0000A1031684900B0FBF1F807E00AEBCA00E0
:102AC00000EB0A1031688900B0FBF1F86420B8FB14
:102AD000F0F004012009642101FB1089A88910F499
:102AE000004F08D0322000EBC900B0FBF1F000F03D
:102AF0000700044308E0322000EB09106421B0FB1A
:102B0000F1F000F00F0004432C8106B0BDE8F0871F
:102B10004FF41651016000218180C18001810C2198
:102B2000418100218181704710B502460020108A42
:102B30004FF2FF0318400B884C8823438C882343B3
:102B4000CC8823431843108210BD002101804180AE
:102B50008180C180704721B1828942F40052828114
:102B600004E082894DF6FF731A4082817047F0B508
:102B700003460024002600250020A1F510676A3FC7
:102B800000D100BF1846C1F3421401F01F0601270F
:102B900007FA06F5012C01D10C3004E0022C01D11A
:102BA000103000E014301AB107682F43076002E0CC
:102BB0000768AF430760F0BD1AB1838A0B43838275
:102BC00002E0838A8B4383827047028A4FF6F07358
:102BD0001A400282028A0A430282704782894FF2B7
:102BE000FF731A40828182890A438281704721B132
:102BF000828942F00202828104E082894FF6FD73ED
:102C00001A4082817047028A4FF6DF731A400282AF
:102C1000028A0A430282704721B1028A42F480424A
:102C2000028204E0028A4BF6FF731A400282704768
:102C3000C1F308028280704701468888C0F308000B
:102C40007047818941F0010181817047028BD2B2C6
:102C50000283028B42EA012202837047028B02F454
:102C60007F420283028B0A430283704721B1828A2A
:102C700042F02002828204E0828A4FF6DF731A401B
:102C80008282704721B1828A42F01002828204E07F
:102C9000828A4FF6EF731A408282704721B1828A8E
:102CA00042F00802828204E0828A4FF6F7731A40EB
:102CB0008282704721B1828942F40042828103E01E
:102CC0008289C2F30E028281704721B1828A42F466
:102CD0000062828204E0828A4FF2FF731A4082828D
:102CE0007047828A4FF6FB731A408282828A0A43B7
:102CF0008282704721B1828A42F00202828204E01D
:102D0000828A4FF6FD731A40828270470246002085
:102D1000B1F5007F00D100BF13880B4201D0012024
:102D200000E00020704701F40072B2F5007F00D18E
:102D300000BFCA430280704770B5024600240023DA
:102D400000250020A1F510666A3E00D100BFC1F346
:102D5000421501F01F03012606FA03F3012D02D1EB
:102D60009689334006E0022D02D1168A334001E0F5
:102D7000968A33400C12012606FA04F41688344071
:102D800013B10CB1012000E0002070BD10B500228D
:102D90000023A1F510646A3C00D100BF0A1201248F
:102DA0009440A3B2DC43048010BD00000038014011
:102DB0000044004000480040004C004000500040EB
:102DC00001460020FE4A106800F0380008431060F9
:102DD0007047FB49096821F00801F94A1160114662
:102DE0000968014311607047F549096821F0100135
:102DF000F34A116011460968014311607047F148B8
:102E0000EF494860F04848607047EE48EC49486038
:102E1000ED4848607047EA48006940F08000E849A2
:102E200008617047E648006940F08000E4490861A5
:102E300070470420E249C96811F0010F01D0012058
:102E40000EE0DF49C96811F0040F01D0022007E04D
:102E5000DB49C96811F0100F01D0032000E0042005
:102E6000704700B502460423FFF7E3FF034603E083
:102E7000FFF7DFFF0346521E012B01D1002AF7D1D5
:102E800002B90523184600BD30B5044604254FF4A9
:102E90003020FFF7E6FF0546042D17D1C84800692A
:102EA00040F00200C649086108464461006940F0EC
:102EB000400008614FF43020FFF7D3FF0546C048BB
:102EC000006941F6FD710840BD490861284630BDE2
:102ED00010B504244FF43020FFF7C3FF0446042C40
:102EE00016D1B748006940F00400B54908610846AA
:102EF000006940F0400008614FF43020FFF7B1FF57
:102F00000446AF48006941F6FB710840AC490861CE
:102F1000204610BD00B502460423FFF78AFF034692
:102F200003E0FFF786FF0346521E012B01D1002A62
:102F3000F7D102B90523184600BD10B504244FF49B
:102F40003020FFF7E7FF0446042C16D19C480069A7
:102F500040F004009A4908610846006940F04000CA
:102F600008614FF43020FFF7D5FF0446944800690C
:102F700041F6FB71084092490861204610BD0020CF
:102F80008F49C96911F0020F01D0012000E0002033
:102F9000704730B5A5250424FFF7F1FF00B10025E7
:102FA0004FF43020FFF75DFF0446042C3AD18548EA
:102FB00083498860844888600846006940F02000A2
:102FC00008610846006940F0400008614FF4302075
:102FD000FFF747FF0446042C1BD17948006941F6EE
:102FE000DF710840764908610846006940F010002A
:102FF000086176480580E002FFF733FF0446052CA0
:1030000010D06F48006941F6EF7108406C490861C3
:1030100008E0052C06D06A48006941F6EF710840C7
:1030200067490861204630BDF0B504460D460426C8
:103030000027F002FFF715FF0646042E22D1604854
:10304000006940F001005E4908612580F002FFF749
:1030500008FF0646042E0ED1A71C280C3880F0026B
:10306000FFF7FFFE06465648006941F6FE7108402C
:103070005349086106E05248006941F6FE71084074
:103080004F4908613046F0BD70B504460D46042630
:10309000F002FFF7E6FE0646042E11D1484800690B
:1030A00040F00100464908612580F002FFF7D9FE93
:1030B00006464348006941F6FE71084040490861F0
:1030C000304670BD70B505460E460424E002FFF799
:1030D000C8FE0446042C17D13A48394988603A485A
:1030E00088600846006940F0100008612E80E00208
:1030F000FFF7B7FE0446052C06D03148006941F6BB
:10310000EF7108402E490861204670BD2DE9F0435B
:1031100004464FF6FF763746B046B1460425E443F1
:10312000E6B2C4F30727C4F307484FEA1469E8027C
:10313000FFF797FE0546042D40D1224820498860BC
:10314000214888600846006940F010000861FF2EA1
:1031500006D01E4808300680E802FFF782FE0546CA
:10316000042D08D1FF2F06D018480A300780E80246
:10317000FFF777FE0546042D0AD1B8F1FF0F07D0FF
:1031800012480C30A0F80080E802FFF76AFE0546FE
:10319000042D0AD1B9F1FF0F07D00C480E30A0F86A
:1031A0000090E802FFF75DFE0546052D06D00448B5
:1031B000006941F6EF71084001490861284607E0BF
:1031C0000020024023016745AB89EFCD00F8FF1FC7
:1031D000BDE8F08330B5054604244FF43020FFF7F6
:1031E00040FE0446042C41D15E485F4988605F4838
:1031F00088600846006940F02000086108460069C0
:1032000040F0400008614FF43020FFF72AFE0446EA
:10321000042C22D15448006941F6DF71084052491C
:1032200008610846006940F0100008611DB10020E7
:103230004F49088002E0A5204D4908804FF4302016
:10324000FFF70FFE0446052C10D04748006941F6F1
:10325000EF7108404449086108E0052C06D0424857
:10326000006941F6DF7108403F490861204630BDE2
:10327000F0B505460E46174604243A483A49886098
:103280003A488860E002FFF7ECFD0446042C19D1AF
:103290003548006940F010003349086147F0F800F4
:1032A000304328433249891C0880E002FFF7D9FDEA
:1032B0000446052C06D02C48006941F6EF71084001
:1032C000294908612046F0BD2748C0698008704739
:1032D0002548006A704700202349096811F0200F33
:1032E00001D0012000E00020704729B11E4A126978
:1032F00002431D4B1A6104E01B4A126982431A4BB8
:103300001A61704701460020012908D1164AD26986
:1033100012F0010F01D0012008E0002006E0124A5F
:10332000D2680A4201D0012000E0002070470E4917
:10333000C860704704200C49C96811F0010F01D022
:1033400001200EE00849C96811F0040F01D00220E5
:1033500007E00549C96811F0100F01D0032000E013
:10336000042070472301674500200240AB89EFCD60
:1033700000F8FF1F002044490860091D0860091D6E
:103380000860091D086041483F49143108607047D2
:1033900000213D498279002A3AD00A461268036822
:1033A0009A430B461A600A1D126803689A430B1D64
:1033B0001A60027911440A6803681A430A60324AA3
:1033C0000832126803689A432F4B08331A601A1D9B
:1033D000126803689A432C4B0C331A604279102A06
:1033E0000ED11A1F126803681A43274B08331A605C
:1033F0001A1D126803681A43234B0C331A600DE040
:103400002149427911440A6803681A430A6005E0B9
:10341000027911440A6803689A430A6070470021E0
:10342000016001710C2141710021817170471649C1
:10343000103109680143144A103211607047014687
:103440000020114A143212680A4201D0012000E023
:10345000002070470C491431086070470146002075
:103460000022094B1B6803EA0102074B14331B6857
:103470000B4202D00AB1012000E00020704702494F
:10348000143108607047000000040140FFFF0F0086
:1034900070477047704770477047754600F028F8CE
:1034A000AE4605006946534620F00700854618B031
:1034B00020B5FEF787FEBDE820404FF000064FF034
:1034C00000074FF000084FF0000B21F00701AC4659
:1034D000ACE8C009ACE8C009ACE8C009ACE8C00978
:1034E0008D4670470446AFF300802046FCF767FE28
:1034F00000487047300900201835000800000020FF
:10350000540000006C0100086C35000854000020D5
:103510003C0F0000880100080000000000000000CF
:103520000004020000000000000000000000000095
:103530000000000000A24A0400000000000000009B
:103540000102030406070809000000000000000053
:103550000000000000000000000000000102030461
:0C35600001020304060708090204060823
:0400000508000131BD
:00000001FF
